:020000040800F2
:1000000000000120F90200084131000845310008D4
:10001000493100084D31000851310008000000004E
:100020000000000000000000000000005531000842
:1000300059310008000000005D31000861310008FE
:1000400041280008412800084128000841280008EC
:1000500041280008412800084128000841280008DC
:1000600041280008412800084128000841280008CC
:1000700041280008412800084128000825310008CF
:1000800041280008412800084128000841280008AC
:10009000412800084128000841280008412800089C
:1000A000412800084128000841280008412800088C
:1000B000412800084128000841280008412800087C
:1000C000412800084128000841280008412800086C
:1000D000412800084128000841280008412800085C
:1000E000353100084128000841280008412800084F
:1000F000412800084128000841280008412800083C
:10010000412800084128000841280008412800082B
:10011000412800084128000841280008412800081B
:10012000412800084128000841280008412800080B
:1001300000000000000000000000000000000000BF
:1001400000000000000000000000000000000000AF
:10015000000000000000000000000000000000009F
:10016000000000000000000000000000000000008F
:10017000000000000000000000000000000000007F
:10018000000000000000000000000000000000006F
:10019000000000000000000000000000000000005F
:1001A000000000000000000000000000000000004F
:1001B000000000000000000000000000000000003F
:1001C000000000000000000000000000000000002F
:1001D000000000000000000000000000000000001F
:1001E0005FF8E0F100B583B002F0A2FA304B314A7B
:1001F0001360314A1360314B314A03E011681960D2
:10020000043304322F498B42F8D32A4B1A682E4B01
:100210009A4204D1284B1A682C4B9A4200D0FEE730
:10022000234B2B4A13602B4A13602B4B02E0002216
:100230001A600433294A9342F9D3254B1B6813B93A
:10024000244B1B6803B1FEE702F07EFA01A8694661
:1002500002F048FA224B234DED1AAD10002404E0C1
:100260001F4B53F8243098470134A542F8DC1E4B4D
:100270001E4DED1AAD10002404E01B4B53F8243042
:1002800098470134A542F8DC0198009902F084FEF9
:100290000546174B174CE41AA41004E0013C144B1C
:1002A00053F824309847002CF8DC284602F0F6F981
:1002B000BABADECA00000020A4000020000000201E
:1002C000B03C0008A80000207856341232547698CA
:1002D000A800002054020020A8000020580200209E
:1002E000240400082404000824040008240400084E
:1002F000240400082404000808B5FFF773FF00BFBA
:1003000000BEFEE71EF0040F0CBFEFF30880EFF312
:1003100009807146364A10472DE9F04182B0074600
:100320008846084C666BA56BA46A074802F0E2F9A0
:10033000CDF800803846214632462B4602F008FAB6
:1003400000BEFEE700ED00E00C3B000800BEFEE74B
:100350001EF0040F0CBFEFF30880EFF30980714625
:10036000244A10472DE9F04182B007468846084CE0
:10037000666BA56BA46A074802F0BCF9CDF8008053
:100380003846214632462B4602F0E2F900BEFEE72F
:1003900000ED00E01C3B00081EF0040F0CBFEFF363
:1003A0000880EFF309807146134A10472DE9F041A8
:1003B00082B007468846084C666BA56BA46A07485E
:1003C00002F098F9CDF800803846214632462B4697
:1003D00002F0BEF900BEFEE700ED00E0283B000899
:1003E00000BEFEE700BEFEE700BEFEE7704700006D
:0C03F0001903000865030008AD030008B5
:1003FC00B03C000800000020A8000020B03C000821
:10040C000000001000000010A8000020580200207E
:08041C000000001000000010B8
:1004240010B5044601F0C8FE064BA3FB002080096A
:1004340000F088F84FF0FF302146002200F044F825
:10044400002010BDD34D621008B5074B1A6842F066
:1004540010021A60032000F025F80F20FFF7E0FFD8
:1004640001F068F9002008BD00200240024B1A6820
:1004740001321A60704700BFAC000020014B1868BD
:10048400704700BFAC00002010B582B00190FFF7A8
:10049400F5FF0446FFF7F2FF001B019B9842F9D3D6
:1004A40002B010BD00F00700064AD36823F4E063ED
:1004B4001B041B0C43EA002343F0BF6343F40033E3
:1004C400D360704700ED00E030B4164BDB68C3F333
:1004D4000223C3F10705042D28BF04251C1D062C87
:1004E40001D9033B00E00023012404FA05F5013D92
:1004F4002940994004FA03F3013B1A400A430028B7
:1005040006DA00F00F001201D2B2074B1A5407E0CA
:100514001201D2B200F1604000F5614080F800237E
:1005240030BC704700ED00E014ED00E0420900F03B
:100534001F00012303FA00F0014B43F82200704727
:1005440000E100E00138B0F1807F0AD2064B586028
:10055400F021064A82F823100020986007221A60CE
:1005640070470120704700BF10E000E000ED00E09C
:1005740010B4046863604368102B04D103689A6064
:100584000368D96003E0036899600368DA605DF882
:10059400044B704710B4034610B390F821200AB9F5
:1005A40080F82020022283F8212019680A6822F4A6
:1005B4007F5222F030025C6898680443D868044390
:1005C400186904435869044398690443D86920436B
:1005D40002430A6000205863012283F8212000E0CE
:1005E40001205DF8044B704738B5044690F82000AC
:1005F400012823D0012084F82000022084F821005F
:100604002068056825F0010505602046FFF7B0FF66
:1006140023681A6842F002021A6023681A6842F0DA
:1006240004021A6023681A6842F008021A602368F8
:100634001A6842F001021A60002038BD022038BD59
:1006440010B504460368B74A934249D902F560726B
:100654001168A2F57E7293423CD01432934237D093
:100664001432934231D0143293422BD01432934239
:1006740025D0143293421FD01432934219D002F57C
:100684006272934213D0143293420ED014329342C6
:1006940008D01432934202D14FF400421BE04FF4CD
:1006A400002218E04FF4006215E0802213E00822D3
:1006B40011E04FF000620EE04FF400020BE04FF443
:1006C400002208E04FF4004205E04FF4006202E02B
:1006D400802200E0082211420CBF0022012246E0E1
:1006E400914A1168083293423CD01432934237D075
:1006F4001432934231D0143293422BD014329342A9
:1007040025D0143293421FD01432934219D002F5EB
:100714006272934213D0143293420ED01432934235
:1007240008D01432934202D14FF400421BE04FF43C
:10073400002218E04FF4006215E0802213E0082242
:1007440011E04FF000620EE04FF400020BE04FF4B2
:10075400002208E04FF4004205E04FF4006202E09A
:10076400802200E0082211420CBF00220122002A4C
:1007740000F0A2801A6812F0080F00F09D801A6839
:1007840022F008021A602368664A934243D9783AF1
:1007940093423CD01432934237D01432934231D036
:1007A400143293422BD01432934225D01432934204
:1007B4001FD01432934219D002F56272934213D0BF
:1007C400143293420ED01432934208D0143293421E
:1007D40002D14FF400421BE04FF4002218E04FF422
:1007E400006215E0802213E0082211E04FF000625D
:1007F4000EE04FF400020BE04FF4002208E04FF447
:10080400004205E04FF4006202E0802200E008228A
:10081400464B5A6042E0464A93423CD014329342DB
:1008240037D01432934231D0143293422BD0143245
:10083400934225D0143293421FD01432934219D0DC
:1008440002F56272934213D0143293420ED01432E2
:10085400934208D01432934202D14FF400421BE079
:100864004FF4002218E04FF4006215E0802213E0F8
:10087400082211E04FF000620EE04FF400020BE09A
:100884004FF4002208E04FF4004205E04FF4006208
:1008940002E0802200E00822234B5A60636B43F09D
:1008A40001036363042384F82130002384F8203097
:1008B400236B0BB12046984723681A4A934252D9B6
:1008C40002F560721168A2F57E72934245D014322B
:1008D400934240D0143293423AD01432934234D0EB
:1008E400143293422ED01432934228D014329342BD
:1008F40022D002F5627293421CD0143293420ED07D
:100904001432934208D01432934202D14FF48042FD
:1009140024E04FF4802221E04FF480621EE0402264
:100924001CE000BF800002400000024000040240BE
:1009340008000240042211E04FF080620EE04FF400
:1009440080020BE04FF4802208E04FF4804205E07F
:100954004FF4806202E0402200E0042211420CBF06
:100964000022012246E0B74A1168083293423CD083
:100974001432934237D01432934231D0143293421A
:100984002BD01432934225D0143293421FD0143208
:10099400934219D002F56272934213D014329342F7
:1009A4000ED01432934208D01432934202D14FF441
:1009B40080421BE04FF4802218E04FF4806215E07F
:1009C400402213E0042211E04FF080620EE04FF465
:1009D40080020BE04FF4802208E04FF4804205E0EF
:1009E4004FF4806202E0402200E0042211420CBF76
:1009F40000220122002A00F09F801A6812F0040FDE
:100A040000F09A801A6812F0200F03D11A6822F0BD
:100A140004021A6023688C4A934243D9783A934279
:100A24003CD01432934237D01432934231D0143232
:100A340093422BD01432934225D0143293421FD0C8
:100A44001432934219D002F56272934213D01432D5
:100A540093420ED01432934208D01432934202D1FE
:100A64004FF480421BE04FF4802218E04FF4806280
:100A740015E0402213E0042211E04FF080620EE002
:100A84004FF480020BE04FF4802208E04FF48042E0
:100A940005E04FF4806202E0402200E004226B4B48
:100AA4005A6042E06A4A93423CD01432934237D0AF
:100AB4001432934231D0143293422BD014329342E5
:100AC40025D0143293421FD01432934219D002F528
:100AD4006272934213D0143293420ED01432934272
:100AE40008D01432934202D14FF480421BE04FF4F9
:100AF400802218E04FF4806215E0402213E00422C3
:100B040011E04FF080620EE04FF480020BE04FF4EE
:100B1400802208E04FF4804205E04FF4806202E056
:100B2400402200E00422474B5A60112384F821300C
:100B3400E36A0BB1204698472368434A934249D954
:100B440002F560721168A2F57E7293423CD01432B1
:100B5400934237D01432934231D0143293422BD083
:100B64001432934225D0143293421FD0143293424C
:100B740019D002F56272934213D0143293420ED00C
:100B84001432934208D01432934202D14FF40052EB
:100B94001BE04FF4003218E04FF4007215E02022FD
:100BA40013E0022211E04FF000720EE04FF4001245
:100BB4000BE04FF4003208E04FF4005205E04FF42C
:100BC400007202E0202200E0022211420CBF002247
:100BD40001224FE01B4A11680832934245D0143277
:100BE400934240D0143293423AD01432934234D0D8
:100BF400143293422ED0143293421FD014329342B3
:100C040019D002F56272934213D0143293420ED07B
:100C14001432934208D01432934202D14FF400525A
:100C240024E04FF4003221E04FF400721EE0202251
:100C34001CE002221AE04FF0007217E04FF4001299
:100C440014E000BF000002408000024000040240A3
:100C5400080002404FF4003208E04FF4005205E06F
:100C64004FF4007202E0202200E0022211420CBF85
:100C740000220122002A00F0A4801A6812F0020F58
:100C840000F09F801A6812F0200F03D11A6822F036
:100C940002021A6023684B4A934243D9783A93423A
:100CA4003CD01432934237D01432934231D01432B0
:100CB40093422BD01432934225D0143293421FD046
:100CC4001432934219D002F56272934213D0143253
:100CD40093420ED01432934208D01432934202D17C
:100CE4004FF400521BE04FF4003218E04FF400724E
:100CF40015E0202213E0022211E04FF000720EE012
:100D04004FF400120BE04FF4003208E04FF40052AD
:100D140005E04FF4007202E0202200E002222A4B98
:100D24005A6042E0294A93423CD01432934237D06D
:100D34001432934231D0143293422BD01432934262
:100D440025D0143293421FD01432934219D002F5A5
:100D54006272934213D0143293420ED014329342EF
:100D640008D01432934202D14FF400521BE04FF4E6
:100D7400003218E04FF4007215E0202213E0022242
:100D840011E04FF000720EE04FF400120BE04FF44C
:100D9400003208E04FF4005205E04FF4007202E024
:100DA400202200E002220A4B5A60636B6363012332
:100DB40084F82130002384F82030A36A0BB1204644
:100DC400984710BD80000240000402400800024021
:100DD40000000240F0B482B000263346E7E001246C
:100DE4009C400A682240A24240F0E0804D68122DE7
:100DF4002DD00BD8022D27D003D85DB3012D1ED0E2
:100E040035E0032D30D0112D1BD030E06B4FBD42A7
:100E140020D008D8A7F58017BD421BD007F580372E
:100E2400BD4224D116E0664FBD4213D007F580378A
:100E3400BD420FD0A7F58017BD4218D10AE0CE6895
:100E440015E0CE68043612E0CE6808360FE0CE68AE
:100E54000C360CE08D684DB1012D02D104610826D9
:100E640005E04461082602E0002600E00426FF2A8B
:100E740001D8044600E0041DFF2A01D89D0002E0C9
:100E8400A3F10805AD0027684FF00F0C0CFA05FC20
:100E940027EA0C0706FA05F53D4325604C6814F073
:100EA400805F00F08380474CA56945F00105A5618A
:100EB400A46904F001040194019C9C08A71C424D00
:100EC40055F8277003F00305AD004FF00F0C0CFA32
:100ED40005FC27EA0C07DFF8F8C0604525D00CF5BF
:100EE400806C60451ED00CF5806C604517D00CF505
:100EF400806C604510D00CF5806C604509D00CF511
:100F0400806C604502D14FF0050C10E04FF0060CE8
:100F14000DE04FF0040C0AE04FF0030C07E04FF033
:100F2400020C04E04FF0010C01E04FF0000C0CFA4D
:100F340005F53D430234244F47F824504C6814F41B
:100F4400803F04D0214C25681543256004E01F4CE4
:100F5400256825EA020525604C6814F4003F04D096
:100F64001A4C65681543656004E0184C656825EA09
:100F7400020565604C6814F4801F04D0134CA56806
:100F84001543A56004E0114CA56825EA0205A56097
:100F94004C6814F4001F04D00C4CE5682A43E2604A
:100FA40004E00A4CE56825EA0202E26001330F2BF3
:100FB4007FF615AF02B0F0BC704700BF00002110EF
:100FC4000000311000100240000001400004014004
:100FD4000008014083680B4201D0012070470020C3
:100FE400704700BF0AB1016170470904016170478D
:100FF40008B5044B5B69034203D0024B586101F00E
:10100400EBFE08BD000401404368114A934208D82E
:101014005800B1FBF0F0C0F30B03032B16D80420E7
:101024007047826832B903EB4303B1FBF3F040F439
:10103400004007E003EB830303EB8303B1FBF3F00E
:1010440040F44040C0F30B0303B90120704700BFD4
:10105400A0860100F8B504460D461646FFF70EFAC1
:10106400074627E02368596911F4806F11D01A6884
:1010740042F400721A6023685A6922F480625A6149
:101084000423A363012084F83500002384F834305A
:10109400F8BDB6F1FF3F0DD026B1FFF7EFF9C01B45
:1010A400B04207D9012384F83530002384F8343062
:1010B4000320F8BDC5F30743012B08D123685B69FE
:1010C40025EA03039BB2003318BF012307E023681A
:1010D4009B6925EA03039BB2003318BF0123002B4D
:1010E400C0D10020F8BD00BF2DE9F04106460C46F2
:1010F40090461D46FFF7C2F90746B8F1000F12D01B
:101104003DE0B5F1FF3F0ED025B1FFF7B7F9C01BA5
:10111400A84208D9012386F83530002386F83430F4
:101124000320BDE8F081C4F30743012B08D13368E1
:101134005B6924EA03039BB2003318BF012307E071
:1011440033689B6924EA03039BB2003318BF01236D
:10115400002BD6D10020BDE8F081B5F1FF3F0ED0C1
:1011640025B1FFF78BF9C01BA84208D9012386F8E3
:101174003530002386F834300320BDE8F081C4F311
:101184000743012B09D133685B6924EA03039BB24B
:10119400D3F1010338BF002308E033689B6924EAD4
:1011A40003039BB2D3F1010338BF0023002BD4D136
:1011B4000020BDE8F08100BFF8B504460F4616468E
:1011C40005682B6843F480732B604FF001110022F3
:1011D4003346FFF789FF48BB2369B3F5804F04D139
:1011E400236807F0FE071F6114E0236807F44072C8
:1011F400D21142F0F0021A61204610493246FFF73C
:1012040029FF20B1A36B042B12D1012313E023681F
:10121400FFB21F6120460A493246FFF71BFF03460F
:1012240048B1A36B042B05D1012304E0032302E09E
:10123400032300E003231846F8BD00BF08000100A3
:1012440002000100F0B583B004460F461646056857
:101254002B6843F480632B6005682B6843F4807328
:101264002B604FF0011100223346FFF73DFF0028A9
:101274004BD12369B3F5804F05D1236847F00107AB
:10128400FFB21F6135E0236807F44075ED0945F0AE
:10129400F0021A61204623493246FFF7DBFE20B1F3
:1012A400A36B042B33D1012338E02368FFB21F6101
:1012B40020461D493246FFF7CDFE20B1A36B042B17
:1012C40027D101232AE023685A6901929A6901927D
:1012D400019A1A6842F480721A6020464FF0011194
:1012E40000223346FFF700FFA8B9236845F0F10553
:1012F4001D6120460C493246FFF7ACFE034668B137
:10130400A36B042B09D1012308E0032306E0032384
:1013140004E0032302E0032300E00323184603B0A0
:10132400F0BD00BF0800010002000100704700BFCB
:1013340038B5044600284AD090F8353013F0FF0F32
:1013440004D1002380F83430FFF7F0FF022384F83F
:10135400353023681A6822F001021A6000F046FF53
:1013640001461C4BA3FB00239B0C2268536020689E
:101374006268194DAA4201D8013308E04FF496720D
:1013840002FB03F3154AA2FB03539B0901330362D7
:1013940025682046FFF738FEE8612368E169226A80
:1013A4000A431A6023682169E2680A439A60236841
:1013B4006169A2690A43DA6023681A6842F001028B
:1013C4001A600020A063012384F8353038BD012061
:1013D40038BD00BF83DE1B43A0860100D34D6210DD
:1013E400F0B583B004460F4616461D4690F8350006
:1013F400C0B2012867D1002A67D0002B67D02046ED
:101404003949012242F21073FFF76EFE002860D1C1
:1014140094F83430012B5ED0012384F834302368EF
:101424001A6822F400621A60122384F8353000230B
:10143400A36320463946089AFFF7BEFE60B1A36B4A
:10144400042B04D1002384F83430012348E0002322
:1014540084F83430032343E023685A6901929B697A
:101464000193019B19E0204620490022089BFFF7C5
:101474003BFE002831D12268731C31781161013D93
:10148400ADB22268516911F0040F05D025B1B31C27
:1014940071781161013DADB21E46002DE3D12046A5
:1014A40013490022089BFFF71FFE0346B8B92268C0
:1014B400116841F400711160012284F83520002282
:1014C40084F834200CE002230AE0012308E001231D
:1014D40006E0022304E0022302E0032300E00323E6
:1014E400184603B0F0BD00BF0200100080000100E8
:1014F40004000100F0B585B004460D4617461E46AB
:1015040090F83500C0B2012840F0F580002A00F0C0
:10151400F480002B00F0F38020468349012242F23C
:101524001073FFF7E1FD002840F0EB8094F83430AD
:10153400012B00F0E880012384F8343023681A6812
:1015440022F400621A60222384F835300023A36356
:10155400204629460A9AFFF775FE054660B1A36B3B
:10156400042B04D1002384F834300125D8E000236F
:1015740084F834300325D3E0012E11D123681A688E
:1015840022F480621A6072B623685A6901929A69D9
:101594000192019A1A6842F400721A6062B6A0E0DD
:1015A400022E11D123681A6842F400621A6072B6DE
:1015B40023685A6902929A690292029A1A6822F47A
:1015C40080621A6062B68CE023681A6842F4806212
:1015D4001A6023685A6903929B690393039B80E012
:1015E400032E65D8012E0FD12046504900220A9BB4
:1015F400FFF77AFD002840F0888023681B693B7060
:10160400013EB6B201376CE0022E1CD12046484997
:1016140000220A9BFFF768FD002878D172B6236880
:101624001A6842F400721A6023681A693B4603F888
:10163400022B013EB6B262B6226812697A70013E8C
:10164400B6B21F464DE02046394900220A9BFFF7F7
:101654004BFD00285DD123681A6822F480621A6069
:1016640072B623681B693B70013EB6B2204630490E
:1016740000220A9BFFF738FD00284CD123681A6822
:1016840042F400721A6023681B697B70013EB6B293
:1016940062B62046254900220A9BFFF725FD002853
:1016A4003BD123681B69BB70013EB6B2033718E017
:1016B40020461E4900220A9BFFF716FD78BB791CC1
:1016C40023681B693B70013EB6B223685A6912F065
:1016D400040F05D01B697B70013EB6B2023700E0EF
:1016E4000F46002E7FF47CAF012384F835300023AD
:1016F40084F8343014E0022512E0012510E00125BD
:101704000EE002250CE002250AE0032508E003258B
:1017140006E0032504E0032502E0032500E0032599
:10172400284605B0F0BD00BF0200100040000100D3
:1017340004000100704700BF10B4114B5A6822F036
:1017440003025A601A6822F0847222F480321A600A
:101754001A6822F480221A6000225A60186820F065
:10176400F800F82191FAA1F1B1FA81F1102404FAF8
:1017740001F1014319609A605DF8044B704700BFA2
:101784000010024030B583B00446036813F0010F23
:1017940000F0C780B64B5B6803F00C03042B0AD03F
:1017A400B34B5B6803F00C03082B1DD1B04B5B6893
:1017B40013F4803F18D04FF4003393FAA3F3AC4BE7
:1017C4001A684FF4003393FAA3F3B3FA83F303F0E4
:1017D4001F0322FA03F313F0010F00F0A2806368E1
:1017E400002B40F09E8008E3A14B1A6822F480325B
:1017F4001A601A6822F480221A60FEF73FFE05463A
:1018040007E0FEF73BFE401B41F28833984200F2AA
:10181400F6824FF4003393FAA3F3954B1A684FF40E
:10182400003393FAA3F3B3FA83F303F01F0322FA0A
:1018340003F313F0010FE4D16368B3F5803F08D1DB
:1018440003F1804303F588331A6842F480321A6046
:1018540026E063B903F1804303F504331A6822F4E4
:1018640080321A601A6822F480221A6018E0B3F5F4
:10187400A02F0CD103F18043A3F53C331A6842F442
:1018840080221A601A6842F480321A6008E0784BA9
:101894001A6822F480321A601A6822F480221A60CC
:1018A4006368FBB1FEF7EAFD054607E0FEF7E6FDD7
:1018B400401B41F28833984200F2A3824FF4003374
:1018C40093FAA3F36A4B1A684FF4003393FAA3F321
:1018D400B3FA83F303F01F0322FA03F313F0010FA7
:1018E400E4D01EE0FEF7CAFD054607E0FEF7C6FD9C
:1018F400401B41F28833984200F285824FF4003352
:1019040093FAA3F35A4B1A684FF4003393FAA3F3F0
:10191400B3FA83F303F01F0322FA03F313F0010F66
:10192400E4D1236813F0020F00F09080504B5B6801
:1019340013F00C0F0AD04E4B5B6803F00C03082B1A
:1019440027D14B4B5B6813F4803F22D1022393FAD7
:10195400A3F3474B1A68022393FAA3F3B3FA83F36E
:1019640003F01F0322FA03F313F0010F03D02369DA
:10197400012B40F04A823E4B196821F0F80162695C
:10198400F82090FAA0F0B0FA80F082400A431A607E
:101994005CE023699BB3012292FAA2F3B3FA83F3C6
:1019A4009B0003F1844303F584031A60FEF766FD8C
:1019B400054605E0FEF762FD401B642800F227821D
:1019C400022393FAA3F32A4B1A68022393FAA3F38C
:1019D400B3FA83F303F01F0322FA03F313F0010FA6
:1019E400E8D0234B196821F0F8016269F82090FAD5
:1019F400A0F0B0FA80F082400A431A6026E0012386
:101A040093FAA3F3B3FA83F39B0003F1844303F53E
:101A1400840300221A60FEF731FD054605E0FEF757
:101A24002DFD401B642800F2F481022393FAA3F3F2
:101A34000F4B1A68022393FAA3F3B3FA83F303F068
:101A44001F0322FA03F313F0010FE8D1236813F004
:101A5400080F52D0A3695BB3012393FAA3F1B1FA3F
:101A640081F1044A42F82130FEF708FD054609E0F9
:101A74000010024080044242FEF700FD401B64282F
:101A840000F2C981022393FAA3F293FAA3F2C24AA1
:101A9400526A93FAA3F3B3FA83F303F01F0322FA0F
:101AA40003F313F0010FE7D00120FEF7EDFC24E06F
:101AB400012292FAA2F2B2FA82F20021B74B43F861
:101AC4002210FEF7DBFC054605E0FEF7D7FC401BC1
:101AD400642800F2A281022393FAA3F293FAA3F2F8
:101AE400AD4A526A93FAA3F3B3FA83F303F01F03E4
:101AF40022FA03F313F0010FE7D1236813F0040F64
:101B040000F0D180A44BDA6942F08052DA61DB69DB
:101B140003F080530193019BA14B1A6842F4807235
:101B24001A60FEF7ABFC054605E0FEF7A7FC401B78
:101B3400642800F274819A4B1B6813F4807FF4D0FC
:101B4400954B1A6A22F001021A621A6A22F0040200
:101B54001A62FEF793FC054607E0FEF78FFC401B74
:101B640041F28833984200F25C81022393FAA3F293
:101B740093FAA3F3B3FA83F343F040035B09022B14
:101B840002D1854B1A6A01E0834B5A6A022393FA05
:101B9400A3F3B3FA83F303F01F0322FA03F313F05E
:101BA400010FDAD1E368012B05D17B4B1A6A42F0AD
:101BB40001021A6222E063B903F1804303F504339E
:101BC4001A6A22F001021A621A6A22F004021A62E4
:101BD40014E0052B09D1704B1A6A42F004021A6210
:101BE4001A6A42F001021A6208E06B4B1A6A22F088
:101BF40001021A621A6A22F004021A62E3684BB301
:101C0400FEF73CFC054607E0FEF738FC401B41F2BA
:101C14008833984200F20781022393FAA3F293FADD
:101C2400A3F3B3FA83F343F040035B09022B02D11D
:101C3400594B1A6A01E0584B5A6A022393FAA3F3E8
:101C4400B3FA83F303F01F0322FA03F313F0010F33
:101C5400DAD028E0FEF712FC054607E0FEF70EFC9A
:101C6400401B41F28833984200F2DF80022393FA4A
:101C7400A3F293FAA3F3B3FA83F343F040035B09AB
:101C8400022B02D1444B1A6A01E0434B5A6A0223E5
:101C940093FAA3F3B3FA83F303F01F0322FA03F3D3
:101CA40013F0010FDAD1E369002B00F0C0803A4A47
:101CB400526802F00C02082A00F0BB80022B71D19A
:101CC4004FF0807393FAA3F3B3FA83F39B0003F109
:101CD400844303F5840300221A60FEF7CFFB054614
:101CE40005E0FEF7CBFB401B642800F2A4804FF014
:101CF400007393FAA3F3284B1A684FF0007393FA16
:101D0400A3F3B3FA83F303F01F0322FA03F313F0EC
:101D1400010FE6D1236AB3F5803F09D103F1804373
:101D240003F58833596821F40031A2680A435A60E4
:101D3400194B596821F47411206A626A02430A43F8
:101D44005A604FF0807393FAA3F3B3FA83F39B00C2
:101D540003F1844303F5840301221A60FEF78EFB2A
:101D6400044604E0FEF78AFB001B642865D84FF0A4
:101D7400007393FAA3F3084B1A684FF0007393FAB5
:101D8400A3F3B3FA83F303F01F0322FA03F313F06C
:101D9400010FE7D0002053E00010024080044242CB
:101DA400007000404FF0807393FAA3F3B3FA83F307
:101DB4009B0003F1844303F5840300221A60FEF7B9
:101DC4005DFB044604E0FEF759FB001B642836D88B
:101DD4004FF0007393FAA3F31A4B1A684FF0007391
:101DE40093FAA3F3B3FA83F303F01F0322FA03F382
:101DF40013F0010FE7D1002022E0012020E00320AE
:101E04001EE003201CE003201AE0012018E0032058
:101E140016E0032014E0032012E0032010E0032066
:101E24000EE003200CE003200AE0032008E0002079
:101E340006E0012004E0032002E0032000E0032088
:101E440003B030BD0010024070B504460D46B34BDC
:101E54001B6803F007038B4280F09780AF4B1A682E
:101E640022F007020A431A601B6803F007038B423F
:101E740040F03781036813F0020F06D0A84B59686D
:101E840021F0F00182680A435A60236813F0010FBD
:101E940000F00B816368012B13D14FF4003292FAE6
:101EA400A2F29F4A11684FF4003292FAA2F2B2FAF7
:101EB40082F202F01F0221FA02F212F0010F28D17D
:101EC40011E1022B13D14FF0007292FAA2F2944A5C
:101ED40011684FF0007292FAA2F2B2FA82F202F0A2
:101EE4001F0221FA02F212F0010F12D1FDE00222C8
:101EF40092FAA2F28A4A1168022292FAA2F2B2FA81
:101F040082F202F01F0221FA02F212F0010F00F035
:101F1400EE80834A516821F003010B435360FEF7BE
:101F2400ADFA05466368012B0FD107E0FEF7A6FA68
:101F3400401B41F28833984200F2DB80784B5B68A7
:101F440003F00C03042BF1D1AFE0022B17D107E00F
:101F5400FEF794FA401B41F28833984200F2CB809A
:101F64006F4B5B6803F00C03082BF1D19DE0FEF787
:101F740085FA401B41F28833984200F2BE80684BD8
:101F84005B6813F00C0FF2D18FE0036813F0020FBB
:101F940006D0634B596821F0F00182680A435A6005
:101FA400236813F0010F75D06368012B13D14FF42C
:101FB400003292FAA2F25A4A11684FF4003292FAAD
:101FC400A2F2B2FA82F202F01F0221FA02F212F035
:101FD400010F27D193E0022B13D14FF0007292FA34
:101FE400A2F24F4A11684FF0007292FAA2F2B2FACA
:101FF40082F202F01F0221FA02F212F0010F11D153
:102004007FE0022292FAA2F2454A1168022292FA71
:10201400A2F2B2FA82F202F01F0221FA02F212F0E4
:10202400010F70D03E4A516821F003010B43536005
:10203400FEF724FA06466368012B0ED106E0FEF78C
:102044001DFA801B41F2883398425ED8344B5B689A
:1020540003F00C03042BF2D11CE0022B15D106E093
:10206400FEF70CFA801B41F2883398424FD82C4B70
:102074005B6803F00C03082BF2D10BE0FEF7FEF9CA
:10208400801B41F28833984243D8254B5B6813F098
:102094000C0FF3D1214B1A6822F007022A431A606D
:1020A4001B6803F00703AB4235D1236813F0040F18
:1020B40006D01B4B596821F4E061E2680A435A6078
:1020C400236813F0080F07D0154B5A6822F46052A6
:1020D400216942EAC1025A600F20FEF7A1F90020EB
:1020E40070BD012070BD012070BD012070BD0120B4
:1020F40070BD032070BD032070BD032070BD01209E
:1021040070BD012070BD012070BD032070BD03208F
:1021140070BD032070BD012070BD00BF00200240CF
:102124000010024030B486B01F4D02AC28686968C4
:10213400AA68EB680FC42B8AADF804301B4B5B68AC
:1021440003F00C02082A2AD103F470114FF4701220
:1021540092FAA2F2B2FA82F221FA02F206A90A442F
:1021640012F8102C13F4803F15D0104B596801F469
:1021740000314FF4003393FAA3F3B3FA83F321FA53
:1021840003F306A90B4413F8143C0948B0FBF3F01D
:1021940002FB00F004E0074800FB02F000E0044802
:1021A40006B030BC704700BFCC39000800100240B4
:1021B40000127A0000093D0008B5FFF7B3FF084B91
:1021C4005A6802F0F002F02393FAA3F3B3FA83F30C
:1021D40022FA03F3034AD35CD840034B186008BDCA
:1021E40000100240E03900080C00002008B5FFF799
:1021F400E3FF084B5A6802F4E0624FF4E06393FA99
:10220400A3F3B3FA83F322FA03F3034AD35CD8406B
:1022140008BD00BF00100240E039000808B5FFF710
:10222400CBFF084B5A6802F460524FF4605393FAA0
:10223400A3F3B3FA83F322FA03F3034AD35CD8403B
:1022440008BD00BF00100240E03900082DE9F0414C
:1022540004460368196921F44051C2680A431A61AB
:10226400826803691A43436942EA03010268D36836
:1022740023F4B05323F00C030B43D3600368596970
:1022840021F4407182690A435A610668364B9E42C2
:1022940034D1FFF7C3FF00EB800000EB80006368DC
:1022A4009B00B0FBF3F7314DA5FB07277F093F01E6
:1022B400FFF7B4FF00EB800000EB800063689B0035
:1022C400B0FBF3F8FFF7AAFF00EB800000EB8000FF
:1022D40063689B00B0FBF3F3A5FB03235B09642253
:1022E40002FB13884FEA081808F13208A5FB0835E9
:1022F400C5F343152F43B760BDE8F081FFF776FFC0
:1023040000EB800000EB800063689B00B0FBF3F7F8
:10231400164DA5FB07277F093F01FFF767FF00EB79
:10232400800000EB800063689B00B0FBF3F8FFF7CC
:102334005DFF00EB800000EB800063689B00B0FB56
:10234400F3F0A5FB00304009642303FB10884FEA37
:10235400081808F13208A5FB0825C5F343152F43D7
:10236400B760BDE8F08100BF003801401F85EB5124
:102374002DE9F04106460C4690461D46FEF77EF8D0
:102384000746B8F1000F26D053E0B5F1FF3F22D045
:1023940025B1FEF773F8C01BA8421CD93368DA686C
:1023A40022F08002DA603368DA6822F02002DA6010
:1023B4003368DA6822F48072DA6033685A6922F08A
:1023C40001025A61012386F83930002386F8383037
:1023D4000320BDE8F08133681B682340A342D4D1B5
:1023E4000020BDE8F081B5F1FF3F22D025B1FEF712
:1023F40045F8C01BA8421CD93368DA6822F0800271
:10240400DA603368DA6822F02002DA603368DA6866
:1024140022F48072DA6033685A6922F001025A6148
:10242400012386F83930002386F838300320BDE8CC
:10243400F08133681B682340A342D4D00020BDE858
:10244400F08100BF704700BF10B5044648B390F850
:10245400393013F0FF0F04D1002380F83830FFF730
:10246400F1FF022384F839302368DA6822F4005239
:10247400DA602046FFF7EAFE23681A6922F49042E4
:102484001A6123685A6922F02A025A612368DA68B9
:1024940042F40052DA600020E063012384F839300A
:1024A40010BD012010BD00BF70B504460D461E4688
:1024B40090F83930DBB2012B01D0222B59D1002DF9
:1024C40059D0002A59D094F83830012B57D0012321
:1024D40084F838300023E36394F83930DBB2222BDC
:1024E40003D1322384F8393002E0122384F83930DE
:1024F400A284E28423E0013AE284A268B2F5805F18
:1025040012D12046802100223346FFF731FF0028F4
:1025140037D123682A88C2F308025A6023690BB9A9
:1025240002350CE001350AE02046802100223346C2
:10253400FFF71EFF38BB23682A785A600135E28C06
:10254400002AD8D1204640213346FFF711FF034625
:10255400D8B994F83920D2B2322A03D1222284F88D
:10256400392002E0012284F83920002284F838203E
:102574000CE002230AE0012308E0012306E0022321
:1025840004E0032302E0032300E00323184670BDA4
:1025940038B504460D46134690F83900C0B20128F8
:1025A40001D0122832D1002D32D0002B32D094F831
:1025B4003820012A30D0012284F83820A562A3856E
:1025C4000022E26394F83920D2B2122A03D13222D3
:1025D40084F8392002E0222284F83920626B0F4902
:1025E4009162626B0E49D162626B0E49116321687C
:1025F400606B04312A46FDF7F7FF23685A6942F0FD
:1026040040025A61002084F8380038BD022038BDE9
:10261400012038BD012038BD022038BD2D26000818
:102624006D2600087D26000808B5436A0268126812
:1026340012F0200F12D10022DA851A68516921F0B4
:102644004001516193F83920D2B2322A03D11222C7
:1026540083F8392002E0012283F83920184600F07B
:10266400C1FB08BD704700BF08B5406AFFF7FAFF19
:1026740008BD00BF704700BF08B5406A0023C3858A
:10268400C384012380F83930C36B43F01003C36360
:10269400FFF7F0FF08BD00BFFEE700BF08B50D4B14
:1026A4001B6813B90C4A0B4B1A600A4B1B680330A6
:1026B40020F003001844094A904206D900F054FD62
:1026C4000C2303604FF0FF3008BD024A1060184627
:1026D40008BD00BFB00000205802002000FC00200C
:1026E40001230360014B0B60704700BF040000200E
:1026F4000FB400B583B004AB53F8042B019308481E
:10270400802100F081FD011E03DD054800F00AF878
:102714000146084603B05DF804EB04B0704700BFFF
:10272400B80000204FF0FF30704700BF08B500F03C
:1027340087F8024B024A9A6008BD00BF00ED00E032
:102744000000000808B500F0A1F808BDF8B504467B
:102754000D4617461E462648FFF7CAFF254821683E
:10276400FFF7C6FF24486168FFF7C2FF2348A1684A
:10277400FFF7BEFF2248E168FFF7BAFF214821694D
:10278400FFF7B6FF20486169FFF7B2FF1F48A16950
:10279400FFF7AEFF1E48E169FFF7AAFF1D48FFF7E8
:1027A400A7FF1D482946FFF7A3FF1C4CE16A1C48FC
:1027B400FFF79EFF216B1B48FFF79AFFE16B1A4856
:1027C400FFF796FF15F0800F03D018483946FFF73E
:1027D4008FFF15F4004F03D015483146FFF788FFEB
:1027E4001448FFF785FF14480699FFF781FFF8BDE9
:1027F400F0390008003A0008103A0008203A0008AE
:10280400303A0008403A0008503A0008603A00089C
:10281400703A0008803A00088C3A000800ED00E0A5
:102824009C3A0008AC3A0008BC3A0008CC3A0008CC
:10283400DC3A0008EC3A0008F43A0008FFF7FEBF5F
:102844000F4B1A6842F001021A6059680D4A0A4097
:102854005A601A6822F0847222F480321A601A686C
:1028640022F480221A605A6822F4FE025A604FF45D
:102874001F029A604FF00062034B9A60704700BFDA
:10288400001002400000FFF800ED00E01F4B5B6801
:1028940003F00C03042B06D0082B08D03BBB1C4AC6
:1028A4001C4B1A6026E01A4A1A4B1A6022E0174B96
:1028B4005A685B68C2F38342023213F4803F05D145
:1028C400154B03FB02F2134B1A6013E00F4B5B68CA
:1028D40013F4003F05D0104B03FB02F20D4B1A60BA
:1028E40008E00B4B03FB02F20A4B1A6002E0084AB1
:1028F400084B1A60054B5B68C3F30313074AD15CAA
:10290400044B1A68CA401A60704700BF00100240A6
:1029140000127A000C00002000093D00383B00083A
:1029240000B585B004AA052302F8043D40F6B83387
:102934000093A0210123FEF753FD05B05DF804FBCD
:1029440070B582B006460C46154640F6B831009183
:10295400A02122460123FEF7CDFD94F900100029A1
:1029640008DB40F6B83300933046A02122462B46BC
:10297400FEF7C0FD94F9000002B070BD70B584B0DC
:102984000546164800F0A0FA04AC202304F8043DE0
:1029940040F6B83600962846A02122460123FEF7C9
:1029A4001FFD0F4800F090FA21238DF80C3000969B
:1029B4002846A02122460123FEF712FD094800F013
:1029C40083FA22238DF80C3000962846A021224653
:1029D4000123FEF705FD04B070BD00BF483B0008AD
:1029E400603B0008803B000810B51E4B19781E4A56
:1029F40011701E4C22781A701D4B18680421FEF7C2
:102A0400E9FA20701B4B1B883BB1013B9BB2194A6E
:102A1400138013B90122184B1A70124B1B78984279
:102A24001ED1114A127893421AD1144B1B78984242
:102A340016D020B9114B187064220E4B1A8001284D
:102A44000ED10E4B18700B4B1B881BB101220C4B83
:102A54001A7002E00022084B1A700022054B1A80FB
:102A640010BD00BF10000020140000202C00002026
:102A7400240000203C010020440100201800002014
:102A84003801002010B51E4B59781E4A51701E4C57
:102A940062785A701D4B58684FF48071FEF79AFAA9
:102AA40060701B4B5B883BB1013B9BB2184A53805F
:102AB40013B90122174B5A70114B5B7898421ED1FF
:102AC400104A527893421AD1134B5B78984216D02D
:102AD40020B9114B587064220D4B5A8001280ED135
:102AE4000D4B58700A4B5B881BB101220B4B5A707B
:102AF40002E00022074B5A700022054B5A8010BD99
:102B040010000020140000202C00002024000020CD
:102B14003C0100204401002018000020380100205E
:102B240010B50E4A117801310D4B83FB01039B1044
:102B340003EB83035B00CB1ADBB21370092B0BD1BD
:102B440007E0084B53F8243003B198470134E4B24A
:102B540000E00024012CF4D910BD00BF4001002086
:102B6400676666661C00002008B5044B5968044B70
:102B7400586889B20022FEF735FA08BD38000020F3
:102B84003000002008B5044B1968044B186889B25A
:102B94000122FEF727FA08BD38000020300000208B
:102BA40000B587B00E4B9A6942F010029A619B6996
:102BB40003F010030193019B012303930493032364
:102BC4000593084B1B6806A941F8103D064B18688D
:102BD400FEF700F9FFF7D6FF07B05DF804FB00BF6E
:102BE40000100240380000203000002008B5044BDB
:102BF4005968044B586889B20122FEF7F3F908BDFD
:102C0400380000203000002000B587B00E4B9A69D0
:102C140042F010029A619B6903F010030193019B37
:102C240001230393049303230593084B5B6806A9CC
:102C340041F8103D064B5868FEF7CCF8FFF7D6FF75
:102C440007B05DF804FB00BF00100240380000200C
:102C540030000020F0B587B007461D4B9A6942F05A
:102C640004029A619A6902F004020092009A9A6935
:102C740042F480429A619B6903F480430193019B6F
:102C840002230393012304930323059306AD4FF416
:102C9400007345F8103D0F4E30462946FEF79AF86A
:102CA400002403944FF48063029330462946FEF7D0
:102CB40091F80948094A026047608460C46004616D
:102CC40084610C224261FFF7BFFB07B0F0BD00BF77
:102CD4000010024000080140580100200038014063
:102CE4000FB400B5C3B044AB53F8042B019302A84E
:102CF4004FF4807100F088FA02A800F053FA82B20F
:102D0400054802A94FF6FF73FFF7CEFB43B05DF809
:102D140004EB04B0704700BF5801002010B586B022
:102D2400104B9A6942F010029A619B6903F01003F8
:102D34000193019B0C4B03930224049403230593F6
:102D440006A94FF4005241F8102D0848FEF742F846
:102D5400282021460022FDF7B7FB2820FDF7E6FBDB
:102D640006B010BD00100240000011100010014018
:102D740000B583B0134B5A6942F001025A615B6992
:102D840003F001030193019B0F48104B03600023E0
:102D94004360436103618022C260836020238361B6
:102DA4004FF40053C361FDF7F5FB18B10848FFF772
:102DB40097FFFEE7074A044B53635A6203B05DF87A
:102DC40004FB00BF00100240D8010020580002405C
:102DD400A03B0008580100200122014B1A707047E3
:102DE4005002002010B50368184A93422CD15B6846
:102DF400174C18482178FFF773FF2378082B01D06C
:102E04007F2B07D11448FFF76BFF144B1A78013A54
:102E14001A7010BD0A2B01D00D2B0CD10F4B197851
:102E240000220F48425401200E4908701A700E48BF
:102E3400FFF756FF10BD094A127809498B54013235
:102E440002F03F02054B1A7010BD00BF003801406C
:102E540048010020B43B0008B83B000849010020A9
:102E64001002002098010020D03B000800B591B06A
:102E7400FEF762FC012306934FF48033079300228C
:102E840008924FF4E0120F9202220D920E9306A8BC
:102E9400FEF778FC10B1FFF7A9FEFEE70F230193BC
:102EA40002210291002303934FF48062049205935C
:102EB40001A8FEF7C9FF10B1FFF764FEFEE7FFF7B4
:102EC400E5FC11B05DF804FB0FB400B5C3B044AB2E
:102ED40053F8042B019302A84FF4807100F094F985
:102EE40002A800F05FF982B2054802A94FF0FF334F
:102EF400FFF7DAFA43B05DF804EB04B0704700BFA3
:102F04005801002030B587B01C4CA36943F0080376
:102F1400A361A36903F008030093009B12230393A6
:102F2400002504950323059306A9C02341F8103D09
:102F34001348FDF74FFFE36943F40013E361E369CA
:102F440003F400130193019B0E480F4B03600F4BD6
:102F5400436085601A23C3604FF480430361456175
:102F6400FF238361C5610562FEF7E2F918B10848E1
:102F7400FFF7AAFFFEE707B030BD00BF0010024014
:102F8400000C01409C01002000540040A086010078
:102F9400BC3B000870B586B0FDF756FAFFF700FE9B
:102FA400FFF732FEFFF762FF4FF4E130FFF752FE06
:102FB400FFF7B8F80646FFF7FFF80546FFF716F9DE
:102FC4000446FFF72BF90090454831462A4623462C
:102FD400FFF786FE0F2001210022FDF775FA0F206E
:102FE400FDF7A4FAFFF7C4FE3E483F490122FFF76C
:102FF400CFFA18B13D48FFF773FEFEE7FFF782FFF3
:103004003B48FFF7BBFCFFF789FE00250495ADF8AC
:10301400145001238DF80C3002238DF80D30032356
:103024008DF80E3004238DF80F3005238DF8103001
:1030340006238DF811302F4B1D7000222E4B1A7071
:10304400FFF792FD2C4B1B7813F0FF0F03D1294B94
:103054001B78002BF6D0FFF7C9FD28482849082221
:1030640000F088F818B1234B1B78012B22D120489B
:1030740003A92A46FFF764FC044622482146FFF7C9
:1030840023FF002C12DB2048FFF71EFF012408E079
:1030940006AB23441D4813F90C1CFFF715FF01343C
:1030A400E4B2AC42F4D31A48FFF70EFF0022114BEE
:1030B4001A70C2E711481749032200F05BF820B9DF
:1030C4000B48FFF72DFC0625B7E70C4812490222EE
:1030D40000F050F80028B0D01048FFF701FEACE72C
:1030E400D43B00085801002048010020183C000887
:1030F4009C010020500200209801002010020020B2
:10310400303C0008383C0008503C0008583C00089B
:10311400D03B0008603C0008643C0008683C0008A0
:1031240008B50248FDF78CFA08BD00BFD80100209D
:1031340008B54FF40050FDF75BFF08BD704700BFB2
:10314400FEE700BFFEE700BFFEE700BFFEE700BFEB
:10315400704700BF704700BF704700BF08B5FDF758
:1031640085F9FFF7DDFC08BD014B1868704700BF07
:10317400A000002030B50023934208D0C55C013381
:10318400CC1814F8014CA542F6D0281B30BD002001
:1031940030BD10B50023934203D0CC5CC45401333A
:1031A400F9E710BD034613F8012B002AFBD1181AC6
:1031B4000138704730B5141E9BB0054604DA8B23E2
:1031C40003604FF0FF301CE04FF402720091049151
:1031D400ADF80C2014BF04F1FF3121464FF6FF7205
:1031E40002910591ADF80E2069461A461E9B00F027
:1031F40077F8431CBCBF8B232B6014B1009B0022C7
:103204001A701BB030BD000073B50093054B064621
:103214000D461446186831462A462346FFF7CAFF6E
:1032240002B070BDA00000202DE9F0478D688146F2
:10323400AB420C4692461F4643D38B8913F4906FDE
:103244003DD0266809690222C1EB0608666906EBCF
:10325400460696FBF2F608F101023A44964238BF5C
:1032640016465B050FD5314600F01AFB054698B1AA
:1032740021694246FFF78DFFA38923F4906343F04D
:103284008003A38113E0324600F05EFB054670B96B
:103294004846216900F0C0FA0C23C9F80030A3891C
:1032A4004FF0FF3043F04003A381BDE8F087256170
:1032B40066614544C8EB06062560A6603D46AF42FC
:1032C40000D23D462A462068514600F089FAA36898
:1032D40000205B1BA36023681D442560BDE8F087C4
:1032E4002DE9F0439DB003938B8907461C060D46D8
:1032F40016460CD50B6953B9402100F0D1FA286069
:10330400286110B90C233B60C7E040236B610023A4
:10331400099320238DF8293030238DF82A30334641
:103324001C4613F8012B1AB9B4EB06090FD002E0BE
:10333400252AF5D1F8E73846294632464B46FFF7A9
:1033440073FF013000F0A480099B4B440993237858
:10335400002B00F09D8000234FF0FF32049307936D
:10336400059206938DF853301A9304F101094D4EDA
:103374004C4630462178052200F024FA09F101096F
:10338400049B28B1861B0120B04003430493EEE75D
:10339400D90644BF20228DF853201A0744BF2B229C
:1033A4008DF8532022782A2A02D0079B21460EE06A
:1033B400039A111D12680391002A01DB079204E0AD
:1033C400524243F002030792049301340AE00C468C
:1033D40022780131303A092A03D80A2000FB03235A
:1033E400F5E7079323782E2B19D163782A2B09D17B
:1033F400039B02341A1D1B680392002BB8BF4FF0C5
:10340400FF330BE0611C00230C4622780131303A73
:10341400092A03D80A2000FB0323F5E70593224E6B
:1034240021783046032200F0CDF930B1861B4020CC
:10343400B040049B01340343049321781B480622C3
:10344400661C8DF8281000F0BDF988B1184B33B90B
:10345400039B073323F007030833039314E003AB00
:103464000093384604A92A46124BAFF3008007E0C4
:1034740003AB0093384604A92A460E4B00F08EF89D
:10348400B0F1FF3F804603D0099B4344099346E7CC
:10349400AB895B0601D4099801E04FF0FF301DB001
:1034A400BDE8F0837A3C0008803C0008843C0008B6
:1034B400000000002D3200082DE9F84315461F4690
:1034C4008A680B6906469A42A8BF13462B6091F896
:1034D40043200C46DDF820800AB101332B602368B9
:1034E400990602D52B6802332B60236813F0060972
:1034F4001DD094F843302268003318BF012392068C
:103504001FD5E118302081F843005A1C94F8451067
:103514002244023382F8431013E03046394604F162
:1035240019020123C047013007D009F10109E268FB
:103534002B68D31A9945F0DBDBE74FF0FF30BDE889
:10354400F8833046394604F14302C0470130F4D0D1
:1035540023682A6803F00603E168042B08BFC2EB62
:1035640001052369A2680CBF25EAE57500259A4286
:10357400C4BFC3EB0203ED184FF00009A9450ADAF2
:103584003046394604F11A020123C0470130D4D031
:1035940009F10109F2E70020BDE8F8832DE9FF47AE
:1035A4000E7E80466E2E0C4691469A460C9D01F185
:1035B400430000F0A58011D8632E22D009D8002E34
:1035C40000F0AF80582E40F0BF8081F845607B4A00
:1035D4004FE0642E1ED0692E1CD0B5E0732E00F08F
:1035E400A48009D86F2E2BD0702E40F0AD800B68CC
:1035F40043F020030B6038E0752E21D0782E34D0B0
:10360400A2E02B6801F142071A1D1B682A6081F8A9
:1036140042309DE022682B6812F0800F03D01A1DFF
:103624002A601D6805E05106F9D51A1D2A60B3F910
:103634000050002D39DA2D236D4284F8433034E0F4
:1036440022682B6812F0800F03D01A1D2A601D68AF
:1036540004E05206F9D51A1D2A601D88237E574AB4
:103664006F2B14BF0A2308231BE07823544A84F8E1
:1036740045302368296813F0800F01F104062E6099
:1036840001D00D6802E05F06FBD50D88DE0744BF5C
:1036940043F0200323601DB9236823F02003236033
:1036A4001023002184F8431001E0444A0A23666889
:1036B400002EA66003DB216821F00401216005B916
:1036C4006EB104F14201B5FBF3F603FB1655555DEB
:1036D4000F4601F801593546002EF4D100E00746A3
:1036E400082B0AD12368DD0707D5626823699A424B
:1036F40003DC302307F8013C013FC01B20612CE0B0
:1037040009682B6811F0800F626904D0191D2960C3
:103714001B681A6005E04906F8D5191D29601B6865
:103724001A8000232361074617E02B681A1D2A60BC
:103734001F683846FFF736FD63682061984288BFEA
:1037440023612369636005E004F1420784F8426061
:1037540001232361002384F84330CDF800A04046C0
:10376400214603AA4B46FFF7A7FE013002D14FF0D2
:10377400FF301FE0404649463A462369D0470130AE
:10378400F5D023689B0705D4E068039B9842B8BF33
:1037940018460FE00025E268039BD31A9D42F3DA32
:1037A4004046494604F119020123D0470130DED0D6
:1037B4000135F0E704B0BDE8F08700BF8B3C00089A
:1037C4009C3C000810B5C9B202449042034605D09F
:1037D4001C7801308C42F8D1184610BD002010BD71
:1037E400814270B501D300230EE08C18A042FAD2B6
:1037F4008518134613F1FF3305D351426618F65C5E
:103804002944CE54F6E770BD934203D0CC5CC45433
:103814000133F9E770BD000030B500293CD051F800
:10382400042C0B1F1D49002AB8BF9B180A680C46BC
:1038340012B95A600B6030BD93420DD21968581802
:10384400904203D15A581144426819605A60236067
:1038540030BD994203D80A4651680029F9D1146849
:1038640015199D420AD11B682344D018884213605D
:1038740012D10868034413604B680CE002D90C238E
:10388400036030BD18681C188C4203D10C68496869
:10389400204418605960536030BD00BF50010020BF
:1038A40070B5CD1C25F0030508350C2D38BF0C254B
:1038B400002D06463FDB8D423DD3214B1C68184644
:1038C4002146A1B10B685B1B0ED40B2B03D90B60F3
:1038D400CC18CD501FE08C4202D1626802601AE01D
:1038E4004B6863600C4616E00C464968E9E7154CE2
:1038F40023681BB9304600F04DF820602946304655
:1039040000F048F8431C014615D0C41C24F00304FD
:1039140084420AD1256004F10B00231D20F0070026
:10392400C31A0BD05A42E25070BD3046611A00F0FF
:1039340031F80130EED10C233360002070BD00BF9C
:10394400500100204C010020F8B5064614460D46EF
:1039540021B91146BDE8F840FFF7A2BF1AB9FFF735
:103964005BFF2046F8BD00F025F8A0420ED2304699
:103974002146FFF795FF074650B129462246FFF737
:1039840008FC30462946FFF747FF01E02846F8BD0A
:103994003846F8BD38B5064C002305460846236072
:1039A400FEF77CFE431C02D1236803B12B6038BDB3
:1039B4005401002051F8040C002802DA04390B5891
:1039C4001844043870470000020304050607080978
:1039D4000A0B0C0D0E0F1010010200000000000075
:1039E4000102030401020304060708095374616316
:1039F4006B206672616D653A0A0000002052302027
:103A04003D2020253038580A000000002052312083
:103A14003D2020253038580A000000002052322072
:103A24003D2020253038580A000000002052332061
:103A34003D2020253038580A000000002052313241
:103A4400203D20253038580A00000000204C522028
:103A54003D2020253038580A000000002050432023
:103A64003D2020253038580A0000000020505352D1
:103A7400203D20253038580A000000004653522FBC
:103A84004641523A0A0000002043465352203D204A
:103A940020253038580A00002048465352203D2043
:103AA40020253038580A00002044465352203D2037
:103AB40020253038580A00002041465352203D202A
:103AC40020253038580A0000204D4D464152203DF3
:103AD40020253038580A00002042464152203D201B
:103AE40020253038580A00004D6973630A0000002D
:103AF400204C522F4558435F52455455524E3D2059
:103B0400253038580A0000005B48617264466175CC
:103B14006C745D0A000000005B4275734661756C4D
:103B2400745D0A005B55736167654661756C745D0D
:103B34000A0000000000000000000000010203046D
:103B4400060708090A526573657474696E67204331
:103B540059206D6F64656C2E2E2E0A000A5265730F
:103B6400657474696E6720636F6D6D616E64206D3A
:103B74006F64656C2E2E2E0A000000000A526573D5
:103B8400657474696E672074726967676572206D05
:103B94006F64656C2E2E2E0A000000000A43616ECD
:103BA4006E6F7420696E697420444D410A000000F0
:103BB40025630000200800004572726F7220776848
:103BC400656E20696E6974204932432E0A00000034
:103BD4000A2A2A2A434D333256523630205445534A
:103BE400542A2A2A0A535953434C4B3A20256C64CD
:103BF4002C2048434C4B3A20256C642C20414250E5
:103C0400313A20256C642C20414250323A20256CF4
:103C1400640A00000A43616E6E6F74207265636506
:103C240069766520444D410A0000000072656365B1
:103C34006976650052657475726E20636F64653AC7
:103C4400203078253032580A000000004461746145
:103C54003A0000002030782530325800313100001D
:103C64003100000057726F6E6720636F6D6D616E77
:103C7400640A00004300232D302B2000686C4C00A4
:103C84006566674546470030313233343536373858
:103C940039414243444546003031323334353637B6
:093CA40038396162636465660051
:103CB00078563412B40000200000000000A24A042C
:103CC000010100000101000001010000ED290008D0
:103CD000892A0008000C0140000801400101000091
:103CE0000010014000100140100000000002000020
:103CF00000000000000000000000000000000000C4
:103D000000000000000000000000000000000000B3
:103D1000783C0008000000000000000000000000E7
:103D20000000000000000000000000000000000093
:103D30000000000000000000000000000000000083
:103D40000000000000000000000000000000000073
:083D5000400000203254769877
:04000005080001E509
:00000001FF
