:020000040800F2
:1000000000000120F9020008853400088934000846
:100010008D34000891340008953400080000000079
:1000200000000000000000000000000099340008FB
:100030009D34000800000000A1340008A534000829
:100040009529000895290008952900089529000898
:100050009529000895290008952900089529000888
:100060009529000895290008952900089529000878
:1000700095290008952900089529000839340008B9
:100080009529000895290008952900089529000858
:100090009529000895290008952900089529000848
:1000A0009529000895290008952900089529000838
:1000B0009529000895290008952900089529000828
:1000C0009529000895290008952900089529000818
:1000D0009529000895290008952900089529000808
:1000E0004934000895290008952900089529000839
:1000F00095290008952900089529000895290008E8
:1001000095290008952900089529000895290008D7
:1001100095290008952900089529000895290008C7
:1001200095290008952900089529000895290008B7
:1001300000000000000000000000000000000000BF
:1001400000000000000000000000000000000000AF
:10015000000000000000000000000000000000009F
:10016000000000000000000000000000000000008F
:10017000000000000000000000000000000000007F
:10018000000000000000000000000000000000006F
:10019000000000000000000000000000000000005F
:1001A000000000000000000000000000000000004F
:1001B000000000000000000000000000000000003F
:1001C000000000000000000000000000000000002F
:1001D000000000000000000000000000000000001F
:1001E0005FF8E0F100B583B002F04CFB304B314AD0
:1001F0001360314A1360314B314A03E011681960D2
:10020000043304322F498B42F8D32A4B1A682E4B01
:100210009A4204D1284B1A682C4B9A4200D0FEE730
:10022000234B2B4A13602B4A13602B4B02E0002216
:100230001A600433294A9342F9D3254B1B6813B93A
:10024000244B1B6803B1FEE702F028FB01A86946B6
:1002500002F0F2FA224B234DED1AAD10002404E017
:100260001F4B53F8243098470134A542F8DC1E4B4D
:100270001E4DED1AAD10002404E01B4B53F8243042
:1002800098470134A542F8DC0198009902F0CAFFB2
:100290000546174B174CE41AA41004E0013C144B1C
:1002A00053F824309847002CF8DC284602F0A0FAD6
:1002B000BABADECA00000020A4040020000000201A
:1002C000B4A10008A804002078563412325476985D
:1002D000A8040020A0A30020A8040020A4A30020BC
:1002E000240400082404000824040008240400084E
:1002F000240400082404000808B5FFF773FF00BFBA
:1003000000BEFEE71EF0040F0CBFEFF30880EFF312
:1003100009807146364A10472DE9F04182B0074600
:100320008846084C666BA56BA46A074802F08CFAF5
:10033000CDF800803846214632462B4602F0B2FA0C
:1003400000BEFEE700ED00E04C3E000800BEFEE708
:100350001EF0040F0CBFEFF30880EFF30980714625
:10036000244A10472DE9F04182B007468846084CE0
:10037000666BA56BA46A074802F066FACDF80080A8
:100380003846214632462B4602F08CFA00BEFEE784
:1003900000ED00E05C3E00081EF0040F0CBFEFF320
:1003A0000880EFF309807146134A10472DE9F041A8
:1003B00082B007468846084C666BA56BA46A07485E
:1003C00002F042FACDF800803846214632462B46EC
:1003D00002F068FA00BEFEE700ED00E0683E0008AB
:1003E00000BEFEE700BEFEE700BEFEE7704700006D
:0C03F0001903000865030008AD030008B5
:1003FC00B4A1000800000020A8040020B4A100084B
:10040C000000001000000010A8040020A4A300208D
:08041C000000001000000010B8
:1004240010B5044601F072FF064BA3FB00208009BF
:1004340000F088F84FF0FF302146002200F044F825
:10044400002010BDD34D621008B5074B1A6842F066
:1004540010021A60032000F025F80F20FFF7E0FFD8
:1004640001F012FA002008BD00200240024B1A6875
:1004740001321A60704700BFAC040020014B1868B9
:10048400704700BFAC04002010B582B00190FFF7A4
:10049400F5FF0446FFF7F2FF001B019B9842F9D3D6
:1004A40002B010BD00F00700064AD36823F4E063ED
:1004B4001B041B0C43EA002343F0BF6343F40033E3
:1004C400D360704700ED00E030B4164BDB68C3F333
:1004D4000223C3F10705042D28BF04251C1D062C87
:1004E40001D9033B00E00023012404FA05F5013D92
:1004F4002940994004FA03F3013B1A400A430028B7
:1005040006DA00F00F001201D2B2074B1A5407E0CA
:100514001201D2B200F1604000F5614080F800237E
:1005240030BC704700ED00E014ED00E0420900F03B
:100534001F00012303FA00F0014B43F82200704727
:1005440000E100E00138B0F1807F0AD2064B586028
:10055400F021064A82F823100020986007221A60CE
:1005640070470120704700BF10E000E000ED00E09C
:1005740010B4046863604368102B04D103689A6064
:100584000368D96003E0036899600368DA605DF882
:10059400044B704710B4034610B390F821200AB9F5
:1005A40080F82020022283F8212019680A6822F4A6
:1005B4007F5222F030025C6898680443D868044390
:1005C400186904435869044398690443D86920436B
:1005D40002430A6000205863012283F8212000E0CE
:1005E40001205DF8044B704738B5044690F82000AC
:1005F400012823D0012084F82000022084F821005F
:100604002068056825F0010505602046FFF7B0FF66
:1006140023681A6842F002021A6023681A6842F0DA
:1006240004021A6023681A6842F008021A602368F8
:100634001A6842F001021A60002038BD022038BD59
:1006440010B504460368B74A934249D902F560726B
:100654001168A2F57E7293423CD01432934237D093
:100664001432934231D0143293422BD01432934239
:1006740025D0143293421FD01432934219D002F57C
:100684006272934213D0143293420ED014329342C6
:1006940008D01432934202D14FF400421BE04FF4CD
:1006A400002218E04FF4006215E0802213E00822D3
:1006B40011E04FF000620EE04FF400020BE04FF443
:1006C400002208E04FF4004205E04FF4006202E02B
:1006D400802200E0082211420CBF0022012246E0E1
:1006E400914A1168083293423CD01432934237D075
:1006F4001432934231D0143293422BD014329342A9
:1007040025D0143293421FD01432934219D002F5EB
:100714006272934213D0143293420ED01432934235
:1007240008D01432934202D14FF400421BE04FF43C
:10073400002218E04FF4006215E0802213E0082242
:1007440011E04FF000620EE04FF400020BE04FF4B2
:10075400002208E04FF4004205E04FF4006202E09A
:10076400802200E0082211420CBF00220122002A4C
:1007740000F0A2801A6812F0080F00F09D801A6839
:1007840022F008021A602368664A934243D9783AF1
:1007940093423CD01432934237D01432934231D036
:1007A400143293422BD01432934225D01432934204
:1007B4001FD01432934219D002F56272934213D0BF
:1007C400143293420ED01432934208D0143293421E
:1007D40002D14FF400421BE04FF4002218E04FF422
:1007E400006215E0802213E0082211E04FF000625D
:1007F4000EE04FF400020BE04FF4002208E04FF447
:10080400004205E04FF4006202E0802200E008228A
:10081400464B5A6042E0464A93423CD014329342DB
:1008240037D01432934231D0143293422BD0143245
:10083400934225D0143293421FD01432934219D0DC
:1008440002F56272934213D0143293420ED01432E2
:10085400934208D01432934202D14FF400421BE079
:100864004FF4002218E04FF4006215E0802213E0F8
:10087400082211E04FF000620EE04FF400020BE09A
:100884004FF4002208E04FF4004205E04FF4006208
:1008940002E0802200E00822234B5A60636B43F09D
:1008A40001036363042384F82130002384F8203097
:1008B400236B0BB12046984723681A4A934252D9B6
:1008C40002F560721168A2F57E72934245D014322B
:1008D400934240D0143293423AD01432934234D0EB
:1008E400143293422ED01432934228D014329342BD
:1008F40022D002F5627293421CD0143293420ED07D
:100904001432934208D01432934202D14FF48042FD
:1009140024E04FF4802221E04FF480621EE0402264
:100924001CE000BF800002400000024000040240BE
:1009340008000240042211E04FF080620EE04FF400
:1009440080020BE04FF4802208E04FF4804205E07F
:100954004FF4806202E0402200E0042211420CBF06
:100964000022012246E0B74A1168083293423CD083
:100974001432934237D01432934231D0143293421A
:100984002BD01432934225D0143293421FD0143208
:10099400934219D002F56272934213D014329342F7
:1009A4000ED01432934208D01432934202D14FF441
:1009B40080421BE04FF4802218E04FF4806215E07F
:1009C400402213E0042211E04FF080620EE04FF465
:1009D40080020BE04FF4802208E04FF4804205E0EF
:1009E4004FF4806202E0402200E0042211420CBF76
:1009F40000220122002A00F09F801A6812F0040FDE
:100A040000F09A801A6812F0200F03D11A6822F0BD
:100A140004021A6023688C4A934243D9783A934279
:100A24003CD01432934237D01432934231D0143232
:100A340093422BD01432934225D0143293421FD0C8
:100A44001432934219D002F56272934213D01432D5
:100A540093420ED01432934208D01432934202D1FE
:100A64004FF480421BE04FF4802218E04FF4806280
:100A740015E0402213E0042211E04FF080620EE002
:100A84004FF480020BE04FF4802208E04FF48042E0
:100A940005E04FF4806202E0402200E004226B4B48
:100AA4005A6042E06A4A93423CD01432934237D0AF
:100AB4001432934231D0143293422BD014329342E5
:100AC40025D0143293421FD01432934219D002F528
:100AD4006272934213D0143293420ED01432934272
:100AE40008D01432934202D14FF480421BE04FF4F9
:100AF400802218E04FF4806215E0402213E00422C3
:100B040011E04FF080620EE04FF480020BE04FF4EE
:100B1400802208E04FF4804205E04FF4806202E056
:100B2400402200E00422474B5A60112384F821300C
:100B3400E36A0BB1204698472368434A934249D954
:100B440002F560721168A2F57E7293423CD01432B1
:100B5400934237D01432934231D0143293422BD083
:100B64001432934225D0143293421FD0143293424C
:100B740019D002F56272934213D0143293420ED00C
:100B84001432934208D01432934202D14FF40052EB
:100B94001BE04FF4003218E04FF4007215E02022FD
:100BA40013E0022211E04FF000720EE04FF4001245
:100BB4000BE04FF4003208E04FF4005205E04FF42C
:100BC400007202E0202200E0022211420CBF002247
:100BD40001224FE01B4A11680832934245D0143277
:100BE400934240D0143293423AD01432934234D0D8
:100BF400143293422ED0143293421FD014329342B3
:100C040019D002F56272934213D0143293420ED07B
:100C14001432934208D01432934202D14FF400525A
:100C240024E04FF4003221E04FF400721EE0202251
:100C34001CE002221AE04FF0007217E04FF4001299
:100C440014E000BF000002408000024000040240A3
:100C5400080002404FF4003208E04FF4005205E06F
:100C64004FF4007202E0202200E0022211420CBF85
:100C740000220122002A00F0A4801A6812F0020F58
:100C840000F09F801A6812F0200F03D11A6822F036
:100C940002021A6023684B4A934243D9783A93423A
:100CA4003CD01432934237D01432934231D01432B0
:100CB40093422BD01432934225D0143293421FD046
:100CC4001432934219D002F56272934213D0143253
:100CD40093420ED01432934208D01432934202D17C
:100CE4004FF400521BE04FF4003218E04FF400724E
:100CF40015E0202213E0022211E04FF000720EE012
:100D04004FF400120BE04FF4003208E04FF40052AD
:100D140005E04FF4007202E0202200E002222A4B98
:100D24005A6042E0294A93423CD01432934237D06D
:100D34001432934231D0143293422BD01432934262
:100D440025D0143293421FD01432934219D002F5A5
:100D54006272934213D0143293420ED014329342EF
:100D640008D01432934202D14FF400521BE04FF4E6
:100D7400003218E04FF4007215E0202213E0022242
:100D840011E04FF000720EE04FF400120BE04FF44C
:100D9400003208E04FF4005205E04FF4007202E024
:100DA400202200E002220A4B5A60636B6363012332
:100DB40084F82130002384F82030A36A0BB1204644
:100DC400984710BD80000240000402400800024021
:100DD40000000240F0B482B000263346E7E001246C
:100DE4009C400A682240A24240F0E0804D68122DE7
:100DF4002DD00BD8022D27D003D85DB3012D1ED0E2
:100E040035E0032D30D0112D1BD030E06B4FBD42A7
:100E140020D008D8A7F58017BD421BD007F580372E
:100E2400BD4224D116E0664FBD4213D007F580378A
:100E3400BD420FD0A7F58017BD4218D10AE0CE6895
:100E440015E0CE68043612E0CE6808360FE0CE68AE
:100E54000C360CE08D684DB1012D02D104610826D9
:100E640005E04461082602E0002600E00426FF2A8B
:100E740001D8044600E0041DFF2A01D89D0002E0C9
:100E8400A3F10805AD0027684FF00F0C0CFA05FC20
:100E940027EA0C0706FA05F53D4325604C6814F073
:100EA400805F00F08380474CA56945F00105A5618A
:100EB400A46904F001040194019C9C08A71C424D00
:100EC40055F8277003F00305AD004FF00F0C0CFA32
:100ED40005FC27EA0C07DFF8F8C0604525D00CF5BF
:100EE400806C60451ED00CF5806C604517D00CF505
:100EF400806C604510D00CF5806C604509D00CF511
:100F0400806C604502D14FF0050C10E04FF0060CE8
:100F14000DE04FF0040C0AE04FF0030C07E04FF033
:100F2400020C04E04FF0010C01E04FF0000C0CFA4D
:100F340005F53D430234244F47F824504C6814F41B
:100F4400803F04D0214C25681543256004E01F4CE4
:100F5400256825EA020525604C6814F4003F04D096
:100F64001A4C65681543656004E0184C656825EA09
:100F7400020565604C6814F4801F04D0134CA56806
:100F84001543A56004E0114CA56825EA0205A56097
:100F94004C6814F4001F04D00C4CE5682A43E2604A
:100FA40004E00A4CE56825EA0202E26001330F2BF3
:100FB4007FF615AF02B0F0BC704700BF00002110EF
:100FC4000000311000100240000001400004014004
:100FD4000008014083680B4201D0012070470020C3
:100FE400704700BF0AB1016170470904016170478D
:100FF40008B5044B5B69034203D0024B586102F00D
:1010040031F808BD000401404368114A934208D8EE
:101014005800B1FBF0F0C0F30B03032B16D80420E7
:101024007047826832B903EB4303B1FBF3F040F439
:10103400004007E003EB830303EB8303B1FBF3F00E
:1010440040F44040C0F30B0303B90120704700BFD4
:10105400A086010003685A6912F4806F0DD05A69A2
:1010640022F480625A6104238363202380F835309C
:10107400002380F83430012070470020704700BFFF
:101084002DE9F04106460C4690461D46FFF7F6F959
:101094000746B8F1000F12D03DE0B5F1FF3F0ED086
:1010A40025B1FFF7EBF9C01BA84208D9202386F825
:1010B4003530002386F834300320BDE8F081C4F3D2
:1010C4000743012B08D133685B6924EA03039BB20D
:1010D400003318BF012307E033689B6924EA030344
:1010E4009BB2003318BF0123002BD6D10020BDE8EA
:1010F400F081B5F1FF3F0ED025B1FFF7BFF9C01B5A
:10110400A84208D9202386F83530002386F83430E5
:101114000320BDE8F081C4F30743012B09D13368F0
:101124005B6924EA03039BB2D3F1010338BF0023B4
:1011340008E033689B6924EA03039BB2D3F10103FB
:1011440038BF0023002BD4D10020BDE8F08100BFBC
:10115400F8B504460D461646FFF790F9074628E011
:101164002368596911F4806F12D01A6842F400722E
:101174001A6023685A6922F480625A610423A363C3
:10118400202384F83530002384F834300120F8BD5E
:10119400B6F1FF3F0DD026B1FFF770F9C01BB04286
:1011A40007D9202384F83530002384F83430032011
:1011B400F8BDC5F30743012B08D123685B6925EA11
:1011C40003039BB2003318BF012307E023689B6924
:1011D40025EA03039BB2003318BF0123002BBFD1C0
:1011E4000020F8BDF8B504460F46164605682B687E
:1011F40043F480732B604FF0011100223346FFF754
:101204003FFF48BB2369B3F5804F04D1236807F03F
:10121400FE071F6114E0236807F44072D21142F004
:10122400F0021A61204610493246FFF791FF20B1BF
:10123400A36B042B12D1012313E02368FFB21F61B7
:1012440020460A493246FFF783FF034648B1A36BA1
:10125400042B05D1012304E0032302E0032300E06F
:1012640003231846F8BD00BF080001000200010076
:10127400F0B583B004460F46164605682B6843F460
:1012840080632B6005682B6843F480732B604FF0F8
:10129400011100223346FFF7F3FE00284BD12369E6
:1012A400B3F5804F05D1236847F00107FFB21F61F2
:1012B40035E0236807F44075ED0945F0F0021A6142
:1012C400204623493246FFF743FF20B1A36B042B8A
:1012D40033D1012338E02368FFB21F6120461D4942
:1012E4003246FFF735FF20B1A36B042B27D101232E
:1012F4002AE023685A6901929A690192019A1A684C
:1013040042F480721A6020464FF0011100223346E5
:10131400FFF7B6FEA8B9236845F0F1051D61204624
:101324000C493246FFF714FF034668B1A36B042B44
:1013340009D1012308E0032306E0032304E0032387
:1013440002E0032300E00323184603B0F0BD00BF0E
:10135400080001000200010070B504460D46FFF7C5
:101364008DF8064618E02046FFF774FED8B9B5F1AB
:10137400FF3F11D025B1FFF781F8801BA8420BD99C
:10138400A36B43F02003A363202384F835300023A8
:1013940084F83430032070BD23685B6913F0800F38
:1013A400E1D0002070BD012070BD00BF70B50446BF
:1013B4000D46FFF763F8064618E02046FFF74AFE9D
:1013C400D8B9B5F1FF3F11D025B1FFF757F8801B0D
:1013D400A8420BD9A36B43F02003A363202384F812
:1013E4003530002384F83430032070BD23685B69F2
:1013F40013F0040FE1D0002070BD012070BD00BFC8
:1014040070B505460C46FFF739F8064622E05A69DE
:1014140012F0100F0CD05A6922F010025A61002306
:10142400AB63202285F8352085F83430012070BD67
:1014340024B1FFF723F8801BA0420BD9AB6B43F018
:101444002003AB63202385F83530002385F834303E
:10145400032070BD2B685A6912F0400FD7D00020CA
:1014640070BD00BF704700BF38B5044600284CD09B
:1014740090F8353013F0FF0F04D1002380F8343096
:10148400FFF7F0FF242384F8353023681A6822F02C
:1014940001021A6000F054FF01461D4BA3FB002318
:1014A4009B0C22685360206862681A4DAA4201D8D6
:1014B400013308E04FF4967202FB03F3164AA2FBD1
:1014C40003539B090133036225682046FFF79CFD03
:1014D400E8612368E169226A0A431A602368216982
:1014E400E2680A439A6023686169A2690A43DA6080
:1014F40023681A6842F001021A600020A0632023C6
:1015040084F8353084F8360038BD012038BD00BF7A
:1015140083DE1B43A0860100D34D6210F0B583B077
:1015240004460F4616461D4690F83500C0B22028E2
:1015340079D1002A79D0002B79D020464249012262
:1015440042F21073FFF79CFD002872D194F83430F6
:10155400012B70D0012384F8343023681A6822F4F4
:1015640000621A60212384F83530102384F8363061
:101574000023A36320463946089AFFF733FE60B17F
:10158400A36B042B04D1002384F83430012357E0E7
:10159400002384F83430032352E023685A6901920B
:1015A4009B690193019B20E020460899FFF7D4FE34
:1015B40048B1A36B042B40D123681A6842F400722B
:1015C4001A6001233CE02268731C31781161013DEB
:1015D400ADB22268516911F0040F05D025B1B31CD6
:1015E40071781161013DADB21E46002DDCD120465B
:1015F4000899FFF7DBFE034648B1A36B042B1ED109
:1016040023681A6842F400721A60012318E0226801
:10161400116841F400711160202284F83520002201
:1016240084F834200CE002230AE0012308E00123BB
:1016340006E0022304E0022302E0032300E0032384
:10164400184603B0F0BD00BF02001000F0B585B02D
:1016540004460D4617461E4690F83500C0B22028B1
:1016640040F0F780002A00F0F680002B00F0F580AF
:1016740020468349012242F21073FFF701FD00283E
:1016840040F0ED8094F83430012B00F0EA8001231F
:1016940084F8343023681A6822F400621A60222322
:1016A40084F83530102384F836300023A3632046B1
:1016B40029460A9AFFF7DCFD054660B1A36B042BAB
:1016C40004D1002384F834300125D5E0002384F8C4
:1016D40034300325D0E0012E11D123681A6822F496
:1016E40080621A6072B623685A6901929A690192FB
:1016F400019A1A6842F400721A6062B69DE0022EE2
:1017040011D123681A6842F400621A6072B6236821
:101714005A6902929A690292029A1A6822F48062C1
:101724001A6062B689E023681A6842F480621A601B
:1017340023685A6903929B690393039B7DE0032EFC
:101744005FD8012E11D120460A99FFF759FE28B11E
:10175400A36B202B40F0878003258DE023681B6951
:101764003B70013EB6B2013767E0022E1CD1204621
:10177400444900220A9BFFF783FC002875D172B606
:1017840023681A6842F400721A6023681A693B4697
:1017940003F8022B013EB6B262B6226812697A706F
:1017A400013EB6B21F4648E02046364900220A9B55
:1017B400FFF766FC00285AD123681A6822F4806275
:1017C4001A6072B623681B693B70013EB6B22046AC
:1017D4002C4900220A9BFFF753FC002849D12368B7
:1017E4001A6842F400721A6023681B697B70013E18
:1017F400B6B262B623681B69BB70013EB6B203374A
:101804001BE020460A99FFF7FBFD20B1A36B202BB8
:1018140031D1032530E0791C23681B693B70013EFC
:10182400B6B223685A6912F0040F05D01B697B70A5
:10183400013EB6B2023700E00F46002E7FF47FAFC0
:10184400202384F83530002384F8363084F834308B
:1018540012E0022510E001250EE001250CE002252E
:101864000AE0022508E0012506E0032504E003253B
:1018740002E0032500E00125284605B0F0BD00BFC5
:101884000200100004000100704700BF10B4114BA7
:101894005A6822F003025A601A6822F0847222F411
:1018A40080321A601A6822F480221A6000225A6078
:1018B400186820F0F800F82191FAA1F1B1FA81F149
:1018C400102404FA01F1014319609A605DF8044B95
:1018D400704700BF0010024030B583B0044603686F
:1018E40013F0010F00F0C780B64B5B6803F00C03E4
:1018F400042B0AD0B34B5B6803F00C03082B1DD1F7
:10190400B04B5B6813F4803F18D04FF4003393FA64
:10191400A3F3AC4B1A684FF4003393FAA3F3B3FA6E
:1019240083F303F01F0322FA03F313F0010F00F013
:10193400A2806368002B40F09E8008E3A14B1A68E4
:1019440022F480321A601A6822F480221A60FEF7A8
:1019540095FD054607E0FEF791FD401B41F28833F3
:10196400984200F2F6824FF4003393FAA3F3954BB6
:101974001A684FF4003393FAA3F3B3FA83F303F032
:101984001F0322FA03F313F0010FE4D16368B3F5E4
:10199400803F08D103F1804303F588331A6842F489
:1019A40080321A6026E063B903F1804303F50433FF
:1019B4001A6822F480321A601A6822F480221A60AB
:1019C40018E0B3F5A02F0CD103F18043A3F53C3309
:1019D4001A6842F480221A601A6842F480321A604B
:1019E40008E0784B1A6822F480321A601A6822F4EC
:1019F40080221A606368FBB1FEF740FD054607E0EC
:101A0400FEF73CFD401B41F28833984200F2A3826A
:101A14004FF4003393FAA3F36A4B1A684FF400337C
:101A240093FAA3F3B3FA83F303F01F0322FA03F345
:101A340013F0010FE4D01EE0FEF720FD054607E099
:101A4400FEF71CFD401B41F28833984200F2858268
:101A54004FF4003393FAA3F35A4B1A684FF400334C
:101A640093FAA3F3B3FA83F303F01F0322FA03F305
:101A740013F0010FE4D1236813F0020F00F09080FB
:101A8400504B5B6813F00C0F0AD04E4B5B6803F0AD
:101A94000C03082B27D14B4B5B6813F4803F22D1F6
:101AA400022393FAA3F3474B1A68022393FAA3F38E
:101AB400B3FA83F303F01F0322FA03F313F0010FC5
:101AC40003D02369012B40F04A823E4B196821F070
:101AD400F8016269F82090FAA0F0B0FA80F0824030
:101AE4000A431A605CE023699BB3012292FAA2F3D1
:101AF400B3FA83F39B0003F1844303F584031A6070
:101B0400FEF7BCFC054605E0FEF7B8FC401B0228C6
:101B140000F22782022393FAA3F32A4B1A680223C2
:101B240093FAA3F3B3FA83F303F01F0322FA03F344
:101B340013F0010FE8D0234B196821F0F801626912
:101B4400F82090FAA0F0B0FA80F082400A431A60BC
:101B540026E0012393FAA3F3B3FA83F39B0003F182
:101B6400844303F5840300221A60FEF787FC0546CC
:101B740005E0FEF783FC401B022800F2F4810223F7
:101B840093FAA3F30F4B1A68022393FAA3F3B3FA5D
:101B940083F303F01F0322FA03F313F0010FE8D1D8
:101BA400236813F0080F52D0A3695BB3012393FA9F
:101BB400A3F1B1FA81F1044A42F82130FEF75EFC48
:101BC400054609E00010024080044242FEF756FC3C
:101BD400401B022800F2C981022393FAA3F293FA6C
:101BE400A3F2C24A526A93FAA3F3B3FA83F303F05B
:101BF4001F0322FA03F313F0010FE7D00120FEF7CD
:101C040043FC24E0012292FAA2F2B2FA82F2002109
:101C1400B74B43F82210FEF731FC054605E0FEF70A
:101C24002DFC401B022800F2A281022393FAA3F2A6
:101C340093FAA3F2AD4A526A93FAA3F3B3FA83F385
:101C440003F01F0322FA03F313F0010FE7D1236813
:101C540013F0040F00F0D180A44BDA6942F08052F3
:101C6400DA61DB6903F080530193019BA14B1A688D
:101C740042F480721A60FEF701FC054605E0FEF7A7
:101C8400FDFB401B642800F274819A4B1B6813F41B
:101C9400807FF4D0954B1A6A22F001021A621A6A04
:101CA40022F004021A62FEF7E9FB054607E0FEF79C
:101CB400E5FB401B41F28833984200F25C81022329
:101CC40093FAA3F293FAA3F3B3FA83F343F0400332
:101CD4005B09022B02D1854B1A6A01E0834B5A6AD5
:101CE400022393FAA3F3B3FA83F303F01F0322FA54
:101CF40003F313F0010FDAD1E368012B05D17B4B19
:101D04001A6A42F001021A6222E063B903F18043C5
:101D140003F504331A6A22F001021A621A6A22F0E5
:101D240004021A6214E0052B09D1704B1A6A42F0BE
:101D340004021A621A6A42F001021A6208E06B4B4A
:101D44001A6A22F001021A621A6A22F004021A6262
:101D5400E3684BB3FEF792FB054607E0FEF78EFB04
:101D6400401B41F28833984200F20781022393FA20
:101D7400A3F293FAA3F3B3FA83F343F040035B09AA
:101D8400022B02D1594B1A6A01E0584B5A6A0223BA
:101D940093FAA3F3B3FA83F303F01F0322FA03F3D2
:101DA40013F0010FDAD028E0FEF768FB054607E0E0
:101DB400FEF764FB401B41F28833984200F2DF8057
:101DC400022393FAA3F293FAA3F3B3FA83F343F04F
:101DD40040035B09022B02D1444B1A6A01E0434BD6
:101DE4005A6A022393FAA3F3B3FA83F303F01F03AB
:101DF40022FA03F313F0010FDAD1E369002B00F0A8
:101E0400C0803A4A526802F00C02082A00F0BB80F3
:101E1400022B71D14FF0807393FAA3F3B3FA83F3D7
:101E24009B0003F1844303F5840300221A60FEF748
:101E340025FB054605E0FEF721FB401B022800F2C6
:101E4400A4804FF0007393FAA3F3284B1A684FF061
:101E5400007393FAA3F3B3FA83F303F01F0322FA94
:101E640003F313F0010FE6D1236AB3F5803F09D1E0
:101E740003F1804303F58833596821F40031A268E3
:101E84000A435A60194B596821F47411206A626A32
:101E940002430A435A604FF0807393FAA3F3B3FAF0
:101EA40083F39B0003F1844303F5840301221A6046
:101EB400FEF7E4FA044604E0FEF7E0FA001B022809
:101EC40065D84FF0007393FAA3F3084B1A684FF0E8
:101ED400007393FAA3F3B3FA83F303F01F0322FA14
:101EE40003F313F0010FE7D0002053E00010024089
:101EF40080044242007000404FF0807393FAA3F3D1
:101F0400B3FA83F39B0003F1844303F584030022B3
:101F14001A60FEF7B3FA044604E0FEF7AFFA001BBA
:101F2400022836D84FF0007393FAA3F31A4B1A68B9
:101F34004FF0007393FAA3F3B3FA83F303F01F0390
:101F440022FA03F313F0010FE7D1002022E001206D
:101F540020E003201EE003201CE003201AE00120FF
:101F640018E0032016E0032014E0032012E003200D
:101F740010E003200EE003200CE003200AE003201D
:101F840008E0002006E0012004E0032002E0032032
:101F940000E0032003B030BD0010024070B50446D9
:101FA4000D46B34B1B6803F007038B4280F0978008
:101FB400AF4B1A6822F007020A431A601B6803F049
:101FC40007038B4240F03781036813F0020F06D0F9
:101FD400A84B596821F0F00182680A435A602368CB
:101FE40013F0010F00F00B816368012B13D14FF440
:101FF400003292FAA2F29F4A11684FF4003292FA28
:10200400A2F2B2FA82F202F01F0221FA02F212F0F4
:10201400010F28D111E1022B13D14FF0007292FA73
:10202400A2F2944A11684FF0007292FAA2F2B2FA44
:1020340082F202F01F0221FA02F212F0010F12D111
:10204400FDE0022292FAA2F28A4A1168022292FA6E
:10205400A2F2B2FA82F202F01F0221FA02F212F0A4
:10206400010F00F0EE80834A516821F003010B4315
:102074005360FEF703FA05466368012B0FD107E0AE
:10208400FEF7FCF9401B41F28833984200F2DB80F2
:10209400784B5B6803F00C03042BF1D1AFE0022B07
:1020A40017D107E0FEF7EAF9401B41F28833984262
:1020B40000F2CB806F4B5B6803F00C03082BF1D16B
:1020C4009DE0FEF7DBF9401B41F28833984200F2B1
:1020D400BE80684B5B6813F00C0FF2D18FE003688D
:1020E40013F0020F06D0634B596821F0F0018268A7
:1020F4000A435A60236813F0010F75D06368012BFB
:1021040013D14FF4003292FAA2F25A4A11684FF4F2
:10211400003292FAA2F2B2FA82F202F01F0221FA1B
:1021240002F212F0010F27D193E0022B13D14FF0EA
:10213400007292FAA2F24F4A11684FF0007292FABA
:10214400A2F2B2FA82F202F01F0221FA02F212F0B3
:10215400010F11D17FE0022292FAA2F2454A1168DE
:10216400022292FAA2F2B2FA82F202F01F0221FAD9
:1021740002F212F0010F70D03E4A516821F00301BF
:102184000B435360FEF77AF906466368012B0ED1C0
:1021940006E0FEF773F9801B41F2883398425ED85B
:1021A400344B5B6803F00C03042BF2D11CE0022BCC
:1021B40015D106E0FEF762F9801B41F2883398429C
:1021C4004FD82C4B5B6803F00C03082BF2D10BE0C7
:1021D400FEF754F9801B41F28833984243D8254BCB
:1021E4005B6813F00C0FF3D1214B1A6822F007023D
:1021F4002A431A601B6803F00703AB4235D12368F6
:1022040013F0040F06D01B4B596821F4E061E26817
:102214000A435A60236813F0080F07D0154B5A6815
:1022240022F46052216942EAC1025A600F20FEF78B
:10223400F7F8002070BD012070BD012070BD0120A1
:1022440070BD012070BD032070BD032070BD03204C
:1022540070BD012070BD012070BD012070BD032040
:1022640070BD032070BD032070BD012070BD00BF90
:10227400002002400010024030B486B01F4D02AC72
:1022840028686968AA68EB680FC42B8AADF8043023
:102294001B4B5B6803F00C02082A2AD103F470116B
:1022A4004FF4701292FAA2F2B2FA82F221FA02F216
:1022B40006A90A4412F8102C13F4803F15D0104BD1
:1022C400596801F400314FF4003393FAA3F3B3FADD
:1022D40083F321FA03F306A90B4413F8143C0948C9
:1022E400B0FBF3F002FB00F004E0074800FB02F04F
:1022F40000E0044806B030BC704700BF0C3D000845
:102304000010024000127A0000093D0008B5FFF7F2
:10231400B3FF084B5A6802F0F002F02393FAA3F3D8
:10232400B3FA83F322FA03F3034AD35CD840034B92
:10233400186008BD00100240203D00080C00002079
:1023440008B5FFF7E3FF084B5A6802F4E0624FF464
:10235400E06393FAA3F3B3FA83F322FA03F3034A91
:10236400D35CD84008BD00BF00100240203D0008E7
:1023740008B5FFF7CBFF084B5A6802F460524FF4DC
:10238400605393FAA3F3B3FA83F322FA03F3034AF1
:10239400D35CD84008BD00BF00100240203D0008B7
:1023A4002DE9F04104460368196921F44051C268DB
:1023B4000A431A61826803691A43436942EA0301C2
:1023C4000268D36823F4B05323F00C030B43D360A7
:1023D4000368596921F4407182690A435A610668A5
:1023E400364B9E4234D1FFF7C3FF00EB800000EB75
:1023F400800063689B00B0FBF3F7314DA5FB072712
:102404007F093F01FFF7B4FF00EB800000EB800081
:1024140063689B00B0FBF3F8FFF7AAFF00EB8000B2
:1024240000EB800063689B00B0FBF3F3A5FB032380
:102434005B09642202FB13884FEA081808F132088A
:10244400A5FB0835C5F343152F43B760BDE8F081FC
:10245400FFF776FF00EB800000EB800063689B00D1
:10246400B0FBF3F7164DA5FB07277F093F01FFF7E4
:1024740067FF00EB800000EB800063689B00B0FB0B
:10248400F3F8FFF75DFF00EB800000EB800063686A
:102494009B00B0FBF3F0A5FB00304009642303FB71
:1024A40010884FEA081808F13208A5FB0825C5F37F
:1024B40043152F43B760BDE8F08100BF00380140E9
:1024C4001F85EB512DE9F04106460C4690461D460A
:1024D400FDF7D4FF0746B8F1000F26D053E0B5F15D
:1024E400FF3F22D025B1FDF7C9FFC01BA8421CD96C
:1024F4003368DA6822F08002DA603368DA6822F03E
:102504002002DA603368DA6822F48072DA603368B1
:102514005A6922F001025A61012386F839300023F6
:1025240086F838300320BDE8F08133681B68234007
:10253400A342D4D10020BDE8F081B5F1FF3F22D001
:1025440025B1FDF79BFFC01BA8421CD93368DA688C
:1025540022F08002DA603368DA6822F02002DA605E
:102564003368DA6822F48072DA6033685A6922F0D8
:1025740001025A61012386F83930002386F8383085
:102584000320BDE8F08133681B682340A342D4D004
:102594000020BDE8F08100BF704700BF10B50446BD
:1025A40048B390F8393013F0FF0F04D1002380F8BA
:1025B4003830FFF7F1FF022384F839302368DA68F2
:1025C40022F40052DA602046FFF7EAFE23681A6913
:1025D40022F490421A6123685A6922F02A025A614D
:1025E4002368DA6842F40052DA600020E0630123D1
:1025F40084F8393010BD012010BD00BF70B5044609
:102604000D461E4690F83930DBB2012B01D0222B47
:1026140059D1002D59D0002A59D094F83830012BC3
:1026240057D0012384F838300023E36394F8393019
:10263400DBB2222B03D1322384F8393002E0122397
:1026440084F83930A284E28423E0013AE284A26867
:10265400B2F5805F12D12046802100223346FFF775
:1026640031FF002837D123682A88C2F308025A6050
:1026740023690BB902350CE001350AE020468021BC
:1026840000223346FFF71EFF38BB23682A785A60BE
:102694000135E28C002AD8D1204640213346FFF789
:1026A40011FF0346D8B994F83920D2B2322A03D1A3
:1026B400222284F8392002E0012284F83920002201
:1026C40084F838200CE002230AE0012308E0012307
:1026D40006E0022304E0032302E0032300E00323D3
:1026E400184670BD38B504460D46134690F83900B7
:1026F400C0B2012801D0122832D1002D32D0002BD3
:1027040032D094F83820012A30D0012284F83820BD
:10271400A562A3850022E26394F83920D2B2122A7A
:1027240003D1322284F8392002E0222284F83920AD
:10273400626B0F499162626B0E49D162626B0E4902
:1027440011632168606B04312A46FDF74DFF23684D
:102754005A6942F040025A61002084F8380038BDBA
:10276400022038BD012038BD012038BD022038BD0B
:1027740081270008C1270008D127000808B5436A4B
:102784000268126812F0200F12D10022DA851A684A
:10279400516921F04001516193F83920D2B2322AB3
:1027A40003D1122283F8392002E0012283F8392070
:1027B400184600F05DFC08BD704700BF08B5406ACC
:1027C400FFF7FAFF08BD00BF704700BF08B5406AB5
:1027D4000023C385C384012380F83930C36B43F0DD
:1027E4001003C363FFF7F0FF08BD00BFFEE700BF9F
:1027F40008B50D4B1B6813B90C4A0B4B1A600A4BF6
:102804001B68033020F003001844094A904206D99B
:1028140000F04CFE0C2303604FF0FF3008BD024A69
:102824001060184608BD00BFB0040020A4A3002017
:1028340000FC002001230360014B0B60704700BFC4
:10284400040000200FB400B583B004AB53F8042B8C
:1028540001930848802100F093FE011E03DD054822
:1028640000F00AF80146084603B05DF804EB04B032
:10287400704700BFB80400204FF0FF30704700BF1E
:1028840008B500F087F8024B024A9A6008BD00BF01
:1028940000ED00E00000000808B500F0A1F808BD54
:1028A400F8B504460D4617461E462648FFF7CAFFEC
:1028B40025482168FFF7C6FF24486168FFF7C2FF77
:1028C4002348A168FFF7BEFF2248E168FFF7BAFF7B
:1028D40021482169FFF7B6FF20486169FFF7B2FF7D
:1028E4001F48A169FFF7AEFF1E48E169FFF7AAFF81
:1028F4001D48FFF7A7FF1D482946FFF7A3FF1C4CFF
:10290400E16A1C48FFF79EFF216B1B48FFF79AFF03
:10291400E16B1A48FFF796FF15F0800F03D01848B3
:102924003946FFF78FFF15F4004F03D015483146A1
:10293400FFF788FF1448FFF785FF14480699FFF74F
:1029440081FFF8BD303D0008403D0008503D0008BF
:10295400603D0008703D0008803D0008903D00087F
:10296400A03D0008B03D0008C03D0008CC3D000873
:1029740000ED00E0DC3D0008EC3D0008FC3D0008F3
:102984000C3E00081C3E00082C3E0008343E0008A3
:10299400FFF7FEBF0F4B1A6842F001021A60596834
:1029A4000D4A0A405A601A6822F0847222F4803276
:1029B4001A601A6822F480221A605A6822F4FE020D
:1029C4005A604FF41F029A604FF00062034B9A6002
:1029D400704700BF001002400000FFF800ED00E067
:1029E4001F4B5B6803F00C03042B06D0082B08D0A4
:1029F4003BBB1C4A1C4B1A6026E01A4A1A4B1A604D
:102A040022E0174B5A685B68C2F38342023213F424
:102A1400803F05D1154B03FB02F2134B1A6013E000
:102A24000F4B5B6813F4003F05D0104B03FB02F21D
:102A34000D4B1A6008E00B4B03FB02F20A4B1A60C1
:102A440002E0084A084B1A60054B5B68C3F30313A2
:102A5400074AD15C044B1A68CA401A60704700BF29
:102A64000010024000127A000C00002000093D0012
:102A7400783E00080870030A4B70030C8B70000E3C
:102A8400C870704700B585B004AA022302F8043D5B
:102A940040F6B8330093A0210123FEF73FFD05B0B3
:102AA4005DF804FB00B585B004AA202302F8043DB8
:102AB40040F6B8330093A0210123FEF72FFD05B0A3
:102AC4005DF804FB00B585B004AA212302F8043D97
:102AD40040F6B8330093A0210123FEF71FFD05B093
:102AE4005DF804FB00B585B004AA052302F8043D93
:102AF40040F6B8330093A0210123FEF70FFD05B083
:102B04005DF804FB70B582B006460C46154640F6E7
:102B1400B8310091A02122460123FEF797FD94F9D4
:102B24000010002908DB40F6B83300933046A0219A
:102B340022462B46FEF78AFD94F9000002B070BDD0
:102B440030B44FF0FF3300220AE0057885EA1365BC
:102B5400064C54F8254084EA0323013292B2013032
:102B64008A42F2D3184630BC704700BF10000020E0
:102B74002DE9F04182B004468846071DBFB21848CB
:102B840000F0E8FA174E351F30462946224600F079
:102B9400ABFC204601A9FFF76DFF1348214600F066
:102BA400D9FA019B46F8043C28463946FFF7C8FF8A
:102BB40001A9FFF75FFF0D4800F0CCFA01987851A6
:102BC40004F10802F01E294692B200F08DFC04F1D3
:102BD400090006F8048C80B202B0BDE8F08100BFA1
:102BE400883E000860050020A83E0008C43E000896
:102BF40070B582B006460E4D45F2106428460D4964
:102C0400224600F068FC20460121FFF7B1FF04468C
:102C14000948214600F09EFA4FF0FF3300933046F6
:102C2400A0212A462346FEF779FC02B070BD00BFFE
:102C34005C050020F03E0008DC3E000830B583B09F
:102C4400054649F2AC701121FFF792FF044607488C
:102C5400214600F07FFA4FF0FF3300932846A0216D
:102C6400034A2346FEF75AFC03B030BDDC3E00089D
:102C74005C05002010B51E4B19781E4A11701E4CBD
:102C840022781A701D4B18680421FEF7A3F92070EE
:102C94001B4B1B883BB1013B9BB2194A138013B9F0
:102CA4000122184B1A70124B1B7898421ED1114AFC
:102CB400127893421AD1144B1B78984216D020B93B
:102CC400114B187064220E4B1A8001280ED10E4B42
:102CD40018700B4B1B881BB101220C4B1A7002E0BD
:102CE4000022084B1A700022054B1A8010BD00BF49
:102CF40010040020140400202C04002024040020CC
:102D04003C0500204405002018040020380500205C
:102D140010B51E4B59781E4A51701E4C62785A7079
:102D24001D4B58684FF48071FEF754F960701B4BCB
:102D34005B883BB1013B9BB2184A538013B9012213
:102D4400174B5A70114B5B7898421ED1104A527837
:102D540093421AD1134B5B78984216D020B9114B89
:102D6400587064220D4B5A8001280ED10D4B5870B7
:102D74000A4B5B881BB101220B4B5A7002E0002204
:102D8400074B5A700022054B5A8010BD10040020D6
:102D9400140400202C040020240400203C050020FE
:102DA40044050020180400203805002010B50E4A00
:102DB400117801310D4B83FB01039B1003EB83035B
:102DC4005B00CB1ADBB21370092B0BD107E0084B65
:102DD40053F8243003B198470134E4B200E00024EE
:102DE400012CF4D910BD00BF40050020676666665B
:102DF4001C04002008B5044B5968044B586889B278
:102E04000022FEF7EFF808BD38040020300400204B
:102E140008B5044B1968044B186889B20122FEF7FF
:102E2400E1F808BD380400203004002000B587B064
:102E34000E4B9A6942F010029A619B6903F01003E9
:102E44000193019B01230393049303230593084BEC
:102E54001B6806A941F8103D064B1868FDF7BAFF38
:102E6400FFF7D6FF07B05DF804FB00BF0010024077
:102E7400380400203004002008B5044B5968044B82
:102E8400586889B20122FEF7ADF808BD3804002065
:102E94003004002000B587B00E4B9A6942F010024E
:102EA4009A619B6903F010030193019B012303932F
:102EB400049303230593084B5B6806A941F8103D6E
:102EC400064B5868FDF786FFFFF7D6FF07B05DF89D
:102ED40004FB00BF0010024038040020300400202E
:102EE400F0B587B007461D4B9A6942F004029A6117
:102EF4009A6902F004020092009A9A6942F48042AC
:102F04009A619B6903F480430193019B0223039319
:102F1400012304930323059306AD4FF4007345F88E
:102F2400103D0F4E30462946FDF754FF002403940C
:102F34004FF48063029330462946FDF74BFF09485E
:102F4400094A026047608460C460046184610C22A1
:102F54004261FFF723FB07B0F0BD00BF0010024041
:102F6400000801409CA10020003801400FB400B5C6
:102F7400C3B044AB53F8042B019302A84FF48071FF
:102F840000F0FEFA02A800F0CAFA82B2054802A9CB
:102F94004FF6FF73FFF732FB43B05DF804EB04B068
:102FA400704700BF9CA1002010B586B0104B9A69F1
:102FB40042F010029A619B6903F010030193019B94
:102FC4000C4B0393022404940323059306A94FF4A2
:102FD400005241F8102D0848FDF7FCFE2820214638
:102FE4000022FDF771FA2820FDF7A0FA06B010BD03
:102FF40000100240000011100010014000B583B021
:10300400134B5A6942F001025A615B6903F00103F0
:103014000193019B0F48104B0360002343604361FD
:1030240003618022C2608360202383614FF40053D4
:10303400C361FDF7AFFA18B10848FFF797FFFEE741
:10304400074A044B53635A6203B05DF804FB00BFA4
:10305400001002401CA200205800024098A0000862
:103064009CA100200122014B1A7070479CA30020F0
:1030740010B50368184A93422CD15B68174C184862
:103084002178FFF773FF2378082B01D07F2B07D11A
:103094001448FFF76BFF144B1A78013A1A7010BDED
:1030A4000A2B01D00D2B0CD10F4B197800220F489D
:1030B400425401200E4908701A700E48FFF756FF5B
:1030C40010BD094A127809498B54013202F03F02BB
:1030D400054B1A7010BD00BF0038014048050020A0
:1030E400ACA00008B0A00008490500205CA30020A3
:1030F400DCA10020C8A0000800B591B0FEF7C6FB13
:10310400012306934FF480330793002208924FF46F
:10311400E0120F9202220D920E9306A8FEF7DCFB3A
:1031240010B1FFF7A9FEFEE70F23019302210291DC
:10313400002303934FF480620492059301A8FEF7E1
:103144002DFF10B1FFF764FEFEE7FFF749FC11B055
:103154005DF804FB0FB400B5C3B044AB53F8042BC3
:10316400019302A84FF4807100F00AFA02A800F05B
:10317400D6F982B2054802A94FF0FF33FFF73EFAB1
:1031840043B05DF804EB04B0704700BF9CA100207D
:1031940030B587B01C4CA36943F00803A361A3694D
:1031A40003F008030093009B122303930025049566
:1031B4000323059306A9C02341F8103D1348FDF7E6
:1031C40009FEE36943F40013E361E36903F40013C4
:1031D4000193019B0E480F4B03600F4B43608560C6
:1031E4001A23C3604FF4804303614561FF23836165
:1031F400C5610562FEF738F918B10848FFF7AAFF60
:10320400FEE707B030BD00BF00100240000C0140D3
:10321400E0A1002000540040A0860100B4A00008F2
:1032240070B586B0FDF710F9FFF700FEFFF732FE28
:10323400FFF762FF4FF4E130FFF752FEFFF71CF88F
:103244000646FFF763F80546FFF77AF80446FFF7EA
:103254008FF80090624831462A462346FFF786FEDF
:103264000F2001210022FDF72FF90F20FDF75EF951
:103274005C484FF4807100F0EBF8FFF7BFFE5A484A
:103284005A490122FFF72EFA18B15948FFF76EFE8A
:10329400FEE74FF4FA60FDF7F7F8FFF779FF5548BA
:1032A400FFF7A6FCFFF780FE00250495ADF8145047
:1032B40001238DF80C3002238DF80D3003238DF893
:1032C4000E3004238DF80F3005238DF810300623BB
:1032D4008DF81130484B1D700022484B1A70FFF7CF
:1032E40089FD464B1B7813F0FF0F03D1424B1B782B
:1032F400002BF6D0FFF7C0FD41484249082200F0F8
:10330400DBF818B13C4B1B78012B22D1394803A9B7
:103314002A46FFF7F7FB04463B482146FFF71AFF0E
:10332400002C12DB3948FFF715FF012408E006AB37
:103334002344374813F90C1CFFF70CFF0134E4B2A3
:10334400AC42F4D33348FFF705FF00222A4B1A702E
:10335400C2E72B483049032200F0AEF820B92548D3
:10336400FFF7C0FB0625B7E725482C49022200F0E9
:10337400A3F820B91F48FFF73BFC0125ACE7204820
:103384002749022200F098F820B91A48FFF756FCA2
:103394000125A1E71A482349022200F08DF820B93B
:1033A4001448FFF76FFB042596E715481E490222CF
:1033B40000F082F820B90F48FFF774FB01258BE772
:1033C4000F481A49022200F077F820B90948FFF79C
:1033D40079FB012580E71648FFF7C8FD7CE700BFAD
:1033E400CCA0000854A200209CA100204805002085
:1033F40010A10008E0A100209CA30020DCA1002073
:103404005CA3002028A1000830A1000844A1000802
:103414004CA10008C8A0000854A1000858A1000845
:103424005CA1000860A1000864A1000868A100086C
:103434006CA1000808B50248FDF702F908BD00BFF9
:103444001CA2002008B54FF40050FDF7D1FD08BDC3
:1034540010B4B1F5807F0FD8002304E0C218002413
:10346400147201339BB28B42F8D300230380438050
:103474008380C180012000E000205DF8044B704788
:10348400704700BFFEE700BFFEE700BFFEE700BFD6
:10349400FEE700BF704700BF704700BF704700BF22
:1034A40008B5FCF7E3FFFFF781FC08BD014B186882
:1034B400704700BFA004002030B50023934208D019
:1034C400C55C0133CC1814F8014CA542F6D0281B76
:1034D40030BD002030BD10B50023934203D0CC5C36
:1034E400C4540133F9E710BD814270B501D3002300
:1034F4000EE08C18A042FAD28518134613F1FF335C
:1035040005D351426618F65C2944CE54F6E770BDE3
:10351400934203D0CC5CC4540133F9E770BD034635
:1035240013F8012B002AFBD1181A0138704730B563
:10353400141E9BB0054604DA8B2303604FF0FF3062
:103544001CE04FF4027200910491ADF80C2014BFFA
:1035540004F1FF3121464FF6FF7202910591ADF857
:103564000E2069461A461E9B00F076F8431CBCBF29
:103574008B232B6014B1009B00221A701BB030BD4A
:1035840073B50093054B06460D461446186831463C
:103594002A462346FFF7CBFF02B070BDA0040020EB
:1035A4002DE9F0478D688146AB420C4692461F4692
:1035B40043D38B8913F4906F3DD0266809690222A6
:1035C400C1EB0608666906EB460696FBF2F608F1BF
:1035D40001023A44964238BF16465B050FD5314680
:1035E40000F0FEFA054698B121694246FFF773FFE1
:1035F400A38923F4906343F08003A38113E032464C
:1036040000F042FB054670B94846216900F0A4FA6F
:103614000C23C9F80030A3894FF0FF3043F0400376
:10362400A381BDE8F087256166614544C8EB0606C1
:103634002560A6603D46AF4200D23D462A4620683A
:103644005146FFF751FFA36800205B1BA36023686A
:103654001D442560BDE8F0872DE9F0439DB0039338
:103664008B8907461C060D4616460CD50B6953B9C3
:10367400402100F0B5FA2860286110B90C233B60A2
:10368400C7E040236B610023099320238DF8293080
:1036940030238DF82A3033461C4613F8012B1AB90F
:1036A400B4EB06090FD002E0252AF5D1F8E7384635
:1036B400294632464B46FFF773FF013000F0A480E1
:1036C400099B4B4409932378002B00F09D80002331
:1036D4004FF0FF3204930793059206938DF853300D
:1036E4001A9304F101094D4E4C46304621780522C7
:1036F40000F024FA09F10109049B28B1861B01207A
:10370400B04003430493EEE7D90644BF20228DF86A
:1037140053201A0744BF2B228DF8532022782A2ADB
:1037240002D0079B21460EE0039A111D12680391F3
:10373400002A01DB079204E0524243F0020307929D
:10374400049301340AE00C4622780131303A092A04
:1037540003D80A2000FB0323F5E7079323782E2BD5
:1037640019D163782A2B09D1039B02341A1D1B68D3
:103774000392002BB8BF4FF0FF330BE0611C002312
:103784000C4622780131303A092A03D80A2000FB7A
:103794000323F5E70593224E21783046032200F0F7
:1037A400CDF930B1861B4020B040049B0134034363
:1037B400049321781B480622661C8DF8281000F01B
:1037C400BDF988B1184B33B9039B073323F00703C2
:1037D4000833039314E003AB0093384604A92A4644
:1037E400124BAFF3008007E003AB0093384604A903
:1037F4002A460E4B00F08EF8B0F1FF3F804603D00E
:10380400099B4344099346E7AB895B0601D40998B5
:1038140001E04FF0FF301DB0BDE8F0837EA1000849
:1038240084A1000888A1000800000000A535000854
:103834002DE9F84315461F468A680B6906469A42E5
:10384400A8BF13462B6091F843200C46DDF8208076
:103854000AB101332B602368990602D52B68023321
:103864002B60236813F006091DD094F843302268B6
:10387400003318BF012392061FD5E118302081F8C8
:1038840043005A1C94F845102244023382F8431032
:1038940013E03046394604F119020123C0470130D0
:1038A40007D009F10109E2682B68D31A9945F0DBC6
:1038B400DBE74FF0FF30BDE8F8833046394604F1CA
:1038C4004302C0470130F4D023682A6803F006039A
:1038D400E168042B08BFC2EB01052369A2680CBF91
:1038E40025EAE57500259A42C4BFC3EB0203ED182F
:1038F4004FF00009A9450ADA3046394604F11A02A4
:103904000123C0470130D4D009F10109F2E70020B6
:10391400BDE8F8832DE9FF470E7E80466E2E0C46E7
:1039240091469A460C9D01F1430000F0A58011D800
:10393400632E22D009D8002E00F0AF80582E40F01C
:10394400BF8081F845607B4A4FE0642E1ED0692E0B
:103954001CD0B5E0732E00F0A48009D86F2E2BD0B4
:10396400702E40F0AD800B6843F020030B6038E00C
:10397400752E21D0782E34D0A2E02B6801F14207B5
:103984001A1D1B682A6081F842309DE022682B686A
:1039940012F0800F03D01A1D2A601D6805E051063D
:1039A400F9D51A1D2A60B3F90050002D39DA2D23F8
:1039B4006D4284F8433034E022682B6812F0800FA3
:1039C40003D01A1D2A601D6804E05206F9D51A1D99
:1039D4002A601D88237E574A6F2B14BF0A230823AD
:1039E4001BE07823544A84F845302368296813F08F
:1039F400800F01F104062E6001D00D6802E05F061D
:103A0400FBD50D88DE0744BF43F0200323601DB9B6
:103A1400236823F0200323601023002184F843103B
:103A240001E0444A0A236668002EA66003DB21688D
:103A340021F00401216005B96EB104F14201B5FB26
:103A4400F3F603FB1655555D0F4601F8015935464B
:103A5400002EF4D100E00746082B0AD12368DD07C5
:103A640007D5626823699A4203DC302307F8013CD6
:103A7400013FC01B20612CE009682B6811F0800F06
:103A8400626904D0191D29601B681A6005E04906A3
:103A9400F8D5191D29601B681A8000232361074685
:103AA40017E02B681A1D2A601F683846FFF737FD98
:103AB40063682061984288BF23612369636005E0DD
:103AC40004F1420784F8426001232361002384F84F
:103AD4004330CDF800A04046214603AA4B46FFF7E9
:103AE400A7FE013002D14FF0FF301FE040464946A7
:103AF4003A462369D0470130F5D023689B0705D4A3
:103B0400E068039B9842B8BF18460FE00025E268BE
:103B1400039BD31A9D42F3DA4046494604F1190245
:103B24000123D0470130DED00135F0E704B0BDE811
:103B3400F08700BF8FA10008A0A1000810B5C9B28A
:103B440002449042034605D01C7801308C42F8D1DF
:103B5400184610BD002010BD30B500293CD051F8E6
:103B6400042C0B1F1D49002AB8BF9B180A680C4679
:103B740012B95A600B6030BD93420DD219685818BF
:103B8400904203D15A581144426819605A60236024
:103B940030BD994203D80A4651680029F9D1146806
:103BA40015199D420AD11B682344D018884213601A
:103BB40012D10868034413604B680CE002D90C234B
:103BC400036030BD18681C188C4203D10C68496826
:103BD400204418605960536030BD00BF5005002078
:103BE40070B5CD1C25F0030508350C2D38BF0C2508
:103BF400002D06463FDB8D423DD3214B1C68184601
:103C04002146A1B10B685B1B0ED40B2B03D90B60AF
:103C1400CC18CD501FE08C4202D1626802601AE0D9
:103C24004B6863600C4616E00C464968E9E7154C9E
:103C340023681BB9304600F04DF820602946304611
:103C440000F048F8431C014615D0C41C24F00304BA
:103C540084420AD1256004F10B00231D20F00700E3
:103C6400C31A0BD05A42E25070BD3046611A00F0BC
:103C740031F80130EED10C233360002070BD00BF59
:103C8400500500204C050020F8B5064614460D46A4
:103C940021B91146BDE8F840FFF7A2BF1AB9FFF7F2
:103CA4005BFF2046F8BD00F025F8A0420ED2304656
:103CB4002146FFF795FF074650B129462246FFF7F4
:103CC4000AFC30462946FFF747FF01E02846F8BDC5
:103CD4003846F8BD38B5064C00230546084623602F
:103CE400FEF786FD431C02D1236803B12B6038BD67
:103CF4005405002051F8040C002802DA04390B584A
:103D04001844043870470000020304050607080934
:103D14000A0B0C0D0E0F1010010200000000000031
:103D240001020304010203040607080953746163D2
:103D34006B206672616D653A0A00000020523020E3
:103D44003D2020253038580A000000002052312040
:103D54003D2020253038580A00000000205232202F
:103D64003D2020253038580A00000000205233201E
:103D74003D2020253038580A0000000020523132FE
:103D8400203D20253038580A00000000204C5220E5
:103D94003D2020253038580A0000000020504320E0
:103DA4003D2020253038580A00000000205053528E
:103DB400203D20253038580A000000004653522F79
:103DC4004641523A0A0000002043465352203D2007
:103DD40020253038580A00002048465352203D2000
:103DE40020253038580A00002044465352203D20F4
:103DF40020253038580A00002041465352203D20E7
:103E040020253038580A0000204D4D464152203DAF
:103E140020253038580A00002042464152203D20D7
:103E240020253038580A00004D6973630A000000E9
:103E3400204C522F4558435F52455455524E3D2015
:103E4400253038580A0000005B4861726446617589
:103E54006C745D0A000000005B4275734661756C0A
:103E6400745D0A005B55736167654661756C745DCA
:103E74000A0000000000000000000000010203042A
:103E8400060708090A53686966742043595F6D6F11
:103E940064656C2034206279746573207269676884
:103EA400740A00000A436F70792073697A6520747C
:103EB4006F2043595F6D6F64656C2025750A00009F
:103EC4000A436F70792063726320746F2043595FD3
:103ED4006D6F64656C0A00000A4F75747075742008
:103EE4006C656E6774683A2025750A004359484426
:103EF40010560000400000004E494E4A415F4253B4
:103F040008000100E0070414A74817572000803E6A
:103F14000001A0001800020000001900EB00960048
:103F2400000000000000000000000000000000008D
:103F34000000000018000000000000000100000064
:103F44000100000001000000020000000200000067
:103F54000200000003000000000000000100000057
:103F64000100000001000000020000000300000046
:103F74000300000003000000010000000200000034
:103F84000200000002000000030000000300000023
:103F94000000000000000000080000000A0000000B
:103FA40009000000090000000B0000000B000000E5
:103FB4000B0000000D0000000600000008000000D7
:103FC40008000000080000000A0000000C000000C7
:103FD4000C0000000C0000000700000009000000B5
:103FE40009000000090000000B0000000A000000A6
:103FF40004000000040000000C00000008000000A1
:104004001900000014000000140000001900000052
:104014009A0000000800000000FB06FEF9FFFDFB0B
:1040240000FF0000FDFDFCFFFFFFFE000000FEFDA1
:1040340000666A77CB5FB54E7A6EE463936F5A6C11
:104044000C459D56C0510A4EED57A0560364075FB8
:104054009663B4708E7A1F70C343517EC849E1746D
:104064001932000003FAF7E20C05040700FEFFFE14
:10407400FDFBFDFD00FE0509FC00FCF98F077E0336
:10408400EB096B06A311620E82196B177403AF015F
:1040940088094A063510750DEA16D51327056702F7
:1040A400EE0CFC08230BAE12C200EF0064500000BB
:1040B400FD00F7F503FFFEFA00FE0000FDFDFEFF24
:1040C40000FE0104FFFFFBFF9E0B020A5011D00902
:1040D4008A152C12A61EC41B7D0FED099F185B13B5
:1040E400391F531C6726E1220C0FD709D51A5E131A
:1040F400D110E01EC10405095B4600000402000162
:10410400FAF6E8F3FFFF0000FCFCFCFEFAF9FCFE03
:1041140000000D03DF23AF1D3D309122923EB031EC
:1041240025316630221AF616B8224D1F182730257D
:10413400DE2DEC2A7D28C922534B8437482A3D4B77
:10414400091958207A3C000000FC04FFFAFFFEFB2A
:10415400000001FEFCFDFDFEFC03FAFE0500FDFF70
:104164000431CD23F33696263445223FD149874680
:10417400D008D7044B15E10D851DC61910281C2441
:104184006111080849281319041CE83047039A03ED
:10419400664200000AFFFE00F6FD0611FFFF000064
:1041A400FDFDFCFEF4FB00000000F3E86F24321C6C
:1041B400AD32AD1EE8353433E130112E4219EF141F
:1041C400DC204C1D0C27C523652DCA2A8D24D41B45
:1041D400AD46CC2B9E22DD45E3132F1F5A3D000034
:1041E400F4F3FB00FCFCF1E9FFFF0000FCFCFCFE27
:1041F400070501000000070D0326BA1C7B2E582278
:10420400553D7A2DC73264314C1BE31604226F1FCF
:104214006F279024092DFF2949253C1B374222345E
:104224001D298E4122160527D63C0000F8F7FD0013
:10423400F902110100FF0000FDFDFCFF030100FF76
:104244000000EBF851265F211F384220844A67356D
:10425400AD359533421AC1177C24031FE2270D277D
:104264002A30882C8E285123F4532D33AD2F6B4DD7
:10427400C5183C20F13B00004E0000000400000083
:10428400FF020402FAFFFFFBFFFEFFFEFEFDFDFF3F
:10429400FD00FC0104FFFAFE8411FF09820D3609BA
:1042A4008E1A9C148F22C91EC60B5C060211FE0DC9
:1042B400B51AD2160E22581E2D0D0506D210030E65
:1042C400850F7F199501EB04BF48000000FB000037
:1042D400F9FDFDFCFFFF0000FCFDFCFEFFFFFFFFFE
:1042E4000000FDFDF72AA425D328D722F630C02CE0
:1042F400F63B5038E51FB81C66293B25CC2E742CA0
:1043040094361733EE2DD2269D385F348D20633DCD
:104314005F1CF829B43B0000F000EC10FCF5F6F249
:1043240000000103FDFEFEFC10FA0FEEECFD070C8D
:104334000D05F804E1048C02780A9B089B0EF50C29
:10434400D9013301D202A50273079F05EA0A8B083B
:104354002C0304020D05A6030C0567087000560023
:104364004C5800000DFF0DF00207070DFF00FEFE84
:10437400FCFBFB00F000F10D0E02F4EDD6099402F3
:10438400F407EC05C811C50DBA18E414B302B10062
:10439400D60311039109C907090ECC0A1F04310180
:1043A400BF06160534079C0B63005B0076550000BE
:1043B400320100001000000000FB06FEF9FFFDFBC7
:1043C40000FF0000FDFDFCFFFFFFFE000000FEFDFE
:1043D40000666A77CB5FB54E7A6EE463936F5A6C6E
:1043E4000C459D56C0510A4EED57A0560364075F15
:1043F4009663B4708E7A1F70C343517EC849E174CA
:1044040019320000E8F91818EDF3FEF0FEFD000182
:10441400FBFAFBFE0E00F4F2FAFF010ABA0BC30A20
:10442400F5062D07D00E020A6D13D61023091D06BA
:104434005A08040B2512720EE017C6149F0B850749
:10444400140D970DF10AD6109102EB035D4C000098
:10445400FC0EFAF5FDFEFEF200FE0000FDFD00007C
:1044640002FA0004FDFFFB00D50AE8095B0C7B049B
:1044740017125A0E2C1AE218240F4E0A7817D31169
:10448400891E761B8B254C22F70EC80914175D0F65
:104494004610811CB6032008D4470000ECD6B013A4
:1044A4002806FD0F01FBFC00FE0009050A112AF88D
:1044B400EDFEFBF6FB078A079E098C06370E260CD9
:1044C400EB13BA101D048805380A2D070F0F4D0C85
:1044D4008F169910E2058C04D509970A74092C0FDC
:1044E400D3000C02494F0000090405F6FF01050C36
:1044F400FA09FE08F1E6F3F6F5FFFC070308F6ED0A
:10450400180CCE04BF0A7B07B4147511441A211683
:1045140065049A0180065804BD0C040B0711E70DCD
:104524008C06C3026C0A1E07D709A410DC004A01DA
:10453400795000000A35FBFDDFEBF0E9ED14E911D9
:10454400E7C7CBDCFBD109F9EC180A124507DF05F4
:1045540064059C03F10A990AEF0E580D3C02D4003D
:10456400D902DE017B06D8054609EB075B039301FC
:10457400E1040104A404A30869008C00F7570000B7
:1045840006000D04000404010FFA06F402140A0BD9
:10459400F8FEF2FD06F1FAF90410BD09CC0ABA07D7
:1045A4004216E211CA1B8D1885045A037606A3032A
:1045B400820C220A3A102E0E320AAF05F30B1709A9
:1045C400EF0A271263013D02394E0000E5EBF21BAE
:1045D40001F5F7F6E3F3E51900F1F1ED170407E14E
:1045E400E9160B0CE404C906B206B5056E0BF9080E
:1045F400690E630D97011701A703240348076D058E
:10460400BE09F107D102EE01CD05A10535058008EB
:1046140062009E001757000000F405C30D0802183D
:10462400F70CF712EFE6EAF4FE09FE37FF13F8E59C
:104634009505160204064004150E100A3D171913B9
:1046440055025D00B803A802A0084B07E00D180B43
:10465400B102D300A0052204E905A909740075007C
:10466400A5570000022EEFFFF2F0E1DD04F80DFF84
:10467400FE0B0D0706E012FAEBF3191DEF071D07F9
:104684008605DC038E0A800AC70E400CC5020102AF
:10469400EF0327029D071E06F70A44091C04C702FC
:1046A4007A05DB031B05B30980008800315600003E
:1046B400FDFBFE00FBF9ECEEFFFF0000FCFCFCFE42
:1046C40000FFFFFF00000A082224261D01225A1BB6
:1046D400CE3B9D2DE9314130B11AE9165F225E1FB0
:1046E4004227E024742D762A4F255C1ED430F0290D
:1046F400A928994274174F23603D00001C0B19012F
:10470400F809090C0EFA0EEB06171710E3F4E3FC94
:1047140016EDF0ED8F0B390435095606B70F580C1A
:104724008215F211D502020129041503F8089D0728
:10473400650C760A7C04D6014C0719055006090A53
:1047440071008B00B854000000FBFE00F8000C0957
:1047540000FF0000FDFDFCFFFCFF00000000EFF087
:104764006925A71ECD21A11DC03B442F47333330FB
:10477400C5195916B322301E7D277325D52EB32BA8
:104784008D26541FAA2E582C0027D5402A16BC1F4C
:10479400593D0000E0E4F61EFBF703FA110610F899
:1047A400000D05011C0E09E5EEEEFD06CC04A7067E
:1047B4004905F304B60AA707E90E060DF2019701AD
:1047C400F5027E03A1078705B60AF008C302350285
:1047D400FD045605F404530762007F0048570000A7
:1047E40013F80EF2060B0B0CF0FCEEFEFEEDEBFBE9
:1047F400E605EC0D1E11EDEC3F0C3B04BE09400731
:10480400F8137810A51B29179702B9002104250372
:10481400D109B807EE0D380BC4037B0163066A04A3
:10482400B906950A5A005E00B95400000300040159
:10483400FB000000FFFEFFFDFEFEFD00F803FB038E
:1048440009FFF9FA7A1C850FD9161110082554208E
:10485400C32D1229AC0BF1053C13D70D321C44189F
:10486400FF230D20780D0F067C14390ED610611C21
:10487400DE019F04AB46000010000000150000009C
:104884000100000000FB06FEF9FFFDFB00FF000035
:10489400FDFDFCFFFFFFFE000000FEFD00666A77E1
:1048A400CB5FB54E7A6EE463936F5A6C0C459D569C
:1048B400C0510A4EED57A0560364075F9663B47067
:1048C4008E7A1F70C343517EC849E17419320000C7
:1048D400AD00000009000000C5D0FC23221819DE39
:1048E40000FD000000040200140A00F5FBFEF30FB3
:1048F400B20DEE08B909B507470C9B07C11B101888
:10490400030C700E8010E612F7186014CE206E1D92
:10491400E20EDD08870F5512410C0714E202670707
:1049240040490000F800261306FEF2E5EC021112DD
:10493400FBE7DCDE01F8EAF1FD060C0D4817A510D3
:104944008A11E70FB11DEA161B257921500A8E053D
:10495400DD08E1098A13200FC219351659134209DB
:104964003712FB15EE0E671AEA04B906A8470000D1
:1049740003111A11C0E1001800FB0200FE0709FF31
:1049840001F8F5F4FCFBFCF787158A0D5C0C750C3B
:10499400450CD013B2195413010FF10BD512ED10BD
:1049A4006E1954199A1EF31C6C113B073516A20F8D
:1049B400E00C9A1D7A03A706B0470000F2FFF9172E
:1049C400BDD50007100BF3FC00D7CD02110E04F285
:1049D400F601F2F50A0DBB0D9B08DC08170FCA0F90
:1049E400A9138D108C09020C200A0F0D3411180F15
:1049F400E812B911080BE60B6D0F7B0D870BC9127A
:104A0400B1027E05D94A0000DAFA311E11FCF2CB5C
:104A140005FFFFFDFDFFFC010EFCEEF5FDFC0A1891
:104A24006E0D3F0ACB06F707B015820CE51B8A18FA
:104A3400610F5B0B270F1913D217AB13741E6E1C77
:104A44003112580AEC10A414B40FBC18A204DE07E7
:104A540029480000DAE80018DDE2F712FBFC000345
:104A6400FCFE06FF170905F6F30002F7890D970A05
:104A740018080507C40A1C0BBB107D10BB071807D8
:104A8400BC0A450CDA124C11AB147714B40B800732
:104A94006F0E260E800AB712B9018E028A4C0000EE
:104AA400FC071413BDDAF80CEFEF0105F2FA01FF6D
:104AB40004F9F4F1F70008FAC814E50D020B6C0AC6
:104AC400DF0BF4104F162F111709EB08BD094E0820
:104AD4008010A20F31147D11C20B96060E0D690BC6
:104AE4006C08BB130702E103AF4B0000E8F40C159C
:104AF400D1EE06FF0902FFFBF7FAFD070D06FAF7F0
:104B0400FCFCF600DD14B40D440B270AD812BD11C9
:104B1400D416ED13DE0B3F09AD0B750E48170412C6
:104B2400A817A1146113730CE6128112550F131BFD
:104B34005A04E80562480000E1FA2C1C0903FCCF82
:104B4400FEFBFAFFF90008031BFCE6EAF80009285B
:104B5400E20DD2091B082C091A12FE0ADA19C6172B
:104B640075087F060008BB0BC510290C6D151414BD
:104B7400130AD705380B9F0BC009330E41026E038D
:104B84007D4C00004E00000004000000FD00F7F51D
:104B940003FFFEFA00FE0000FDFDFEFF00FE01041F
:104BA400FFFFFBFF9E0B020A5011D0098A152C123D
:104BB400A61EC41B7D0FED099F185B13391F531CE0
:104BC4006726E1220C0FD709D51A5E13D110E01E17
:104BD400C10405095B460000FD5717EDD3F51AF42F
:104BE400FFFB0000FEFCFF0007E7F801FBFDF1FD01
:104BF400560BD50A500618077B13AE0E4B1422141D
:104C0400EF0FC30BB213550EBB1D76178F26D2229E
:104C1400C911C60926125A0B4110831ADD03AD07C8
:104C240075480000111E1517ED050202000002016F
:104C3400FCFC0000F5FBF7000500F9F9690F020917
:104C4400C60A2D0B891218112C188914E0106C0F48
:104C5400F6172415D01BFC18BB21AE1E9710DA0BD7
:104C640087152510D70E561B9203DB0A0047000058
:104C7400F238F1FBECFDDFBF000001FFF9000A018F
:104C84000AF00400F6FC01131E0CFA0A5806C006CA
:104C9400DF0E640D05144611FA0C4B0C9814E40D48
:104CA400C31C321A5520B01ECC0E690AD110C00D97
:104CB4001B0F97196802540648490000D3000000EE
:104CC4000B000000ECDEAE182801FA1504FF020008
:104CD400FCF60104FE010C00FBFCFCF756081B0863
:104CE4000F0B4F05840E8E0C53134D1192106D1142
:104CF400FE1BF21801273E24CF300328D81798163C
:104D0400CA29DB231E1B813078063409464500007E
:104D1400EAC8A81420050F23F7F30D07E6F32807C4
:104D2400FB0E2F00F2F8F3DB8E08D807E308CA075E
:104D3400AD0E660CCF16021495055C07180B820D98
:104D4400CF136E0DD7182A1011086F08F60CF20C49
:104D5400730B3513DD01E3037D4C0000EDD0A81384
:104D64002E05FD1303021703F4F10100162142F48A
:104D7400E1F3F9F2CD08CC0684081F07AD0EE80B69
:104D840017133010FD036D0454094706BC0BFB08D0
:104D94009011CC0C5A0550037B0874085D07050C70
:104DA400CF00FE01C6500000CBCEF320191617E544
:104DB400FEF2E801FDFD1210261600E8F305ED19D8
:104DC400010FBC0AA80B6D0A8E0FE70A3C1C75176D
:104DD400FF047E057E07D109F30E7C0981148B1232
:104DE400F408E2056F0C220C3A09300ECF01890257
:104DF4002F4D0000F4D2B2102406FB1803FE08FF66
:104E0400F8F70B04081027F6EEF8F9F28807800784
:104E1400B409B006300E920D1215FD10FE047B0687
:104E2400F70C290A2412950E3A1A65139905A00461
:104E3400690DB20B640AD911F7004C02F54D00005C
:104E4400D5C6E62213141DFEFC0825010413F6E062
:104E5400171506F3F9F3E3FB390DBC0AF0099C0AB4
:104E6400E310190B241E0717F6061B07AB09EC0AFF
:104E7400750EC50DFB156E11C70A670AFD0E2A14BF
:104E8400550D7E0FA5036204054B0000DDCEBE1B4D
:104E94001F06000301F5E6FE0D0E0B111E1A2EEE81
:104EA400E505000241089508310921084A0FC30CA1
:104EB400F4142D12BA053105F109D7087E0FEF0E4F
:104EC40011159B1090051F04D709500A04094E0EB2
:104ED400FC002A02B74E0000EFD8AF1227080215D3
:104EE40003FE0100F9F60104FF091DFFF6FCF3EED1
:104EF400E807DD079F0A7D06FD0F4E0D8A15341362
:104F040023093D0AF611800E7318C114FD21521AAB
:104F1400E70ACF0AC51465113A0FD31AB9028A05F4
:104F2400C0490000E4D5BD171AFFE6FCF4E7E70921
:104F3400131E1C081D1131E7DD061714020975083C
:104F4400B00A5507C50FCA0DD4107F0D4E04AF0328
:104F54004508D806400C020A3911B00D49042B0348
:104F64003D0922079A07B40CA100B501DF500000E7
:104F7400F2DBAD102C03F90D0911FDF80700DEF08A
:104F840002192BF8F1FFF5E4F607F807A40A9806CE
:104F9400EC0BAD0C77148E0F2D0533079008CC075E
:104FA400880FD009C917BA0F8507B0060D0D8E0CEE
:104FB400BC09CF11A801F002074E0000EDE6A404DD
:104FC400561DFF0006EBDEFFF30C322017113DFFE8
:104FD400E303F9089F0802097C0C7B06B910A20AB6
:104FE40041199A12E6042C06F3092308720CC30B28
:104FF4009512FF0B4C054D04C507B7090707BD0BF8
:10500400C500F502664F00005801000012000000C0
:1050140003FAF7E20C05040700FEFFFEFDFBFDFDAD
:1050240000FE0509FC00FCF98F077E03EB096B0603
:10503400A311620E82196B177403AF0188094A0623
:105044003510750DEA16D51327056702EE0CFC081A
:10505400230BAE12C200EF0064500000101AFE09C8
:10506400D1D9FEFBEA00010EDBB2D0F4F3E210FE6C
:10507400F50D050A4C13A30F710D400B6010B91404
:10508400B21154117F058C04D306DC049E09F10A85
:10509400EB0CF70A4E0A8A087A0D490A2B093714D1
:1050A4004A023802724D000005F407F300040003BD
:1050B400F1090AE1FAF5EF0BFB1109EE100DFC04FE
:1050C4008816700B4B106C0F821FE319092A682590
:1050D400EF04950175096F06F111B70EE21B9615E1
:1050E4003D08E9013711C2098F0E5419C801630242
:1050F4009F4B0000182C03F1000003071229FA2625
:10510400EAE1F3E6ECEC04E90006F7F70011B8086D
:10511400EA08A506AF1323128C1B8118CF032801BC
:10512400B203C4039C08CF07E40D3E0CE4089B02C1
:10513400EB0A63063C09B7116F01B801B9500000CE
:10514400FCF7130D180C00F3E3EDF81309FFFAEA6A
:10515400F2EFDD040C0C09088410E0084C0A3A0B49
:105164009413410F2E1AB7175C053E045908200703
:10517400C80C190A5D12CC0FE1075806F40BF40BA6
:10518400A208370FAC013A035C4D000001EAFBF5BD
:10519400FB000018E600FE15F6E0EDF9F30608132F
:1051A4000613FCDB1812E10A120C200C68164010DE
:1051B400751EC21A0D04F2023C052305A70A300825
:1051C400C70D950C7F098706820A220BB50ABE100B
:1051D4005601EE013C4E00001F12160DFA14111078
:1051E400FAFFFB08FBF3F5F8DCEEE3021107EDE64A
:1051F4004D105E0AB60B190B2E11E30EA3156412A3
:10520400880866065D0990081C119D0E6816071330
:105214008E06CB04030AB20611088E0D3F01FB0370
:105224002A4D000005041103E9F50115EE050122DC
:10523400D5CDF4EEF5F4F7FBFF0DFCEC2D17780B50
:10524400320F9F0D26159D146D1ACE175E03E901CA
:10525400440568053F09FF08880D5F0B570A94034E
:10526400B00E960C5D0A9A123F011A024D4E0000D0
:1052740009121009F1FD0809FC060107EFE9FAFE1D
:10528400F3F6F1010606F2F24115D80BDB0E2C0AF7
:1052940077157D14B61B3D1585093706B60B2B090A
:1052A4001A11FB107F155F11570B39084E10620B52
:1052B400AC0B8915D102D805284A0000180D0E0E32
:1052C400EB050605F8FCF804EFE1F905ECFFF00046
:1052D4000C09F4F4BF091A05EE07CF05CA0B7C0AC2
:1052E4007D10710C23047B02C0051204CB07C30696
:1052F400690BBC08F6040C033307950540050E0939
:10530400C9005E01BF530000FDFC070EEFF6040167
:10531400F4EC0E25F80C06EEFA0302D6FA00FFFBB5
:105324006E12E60D910E420C4F1AA616151CCB1ADE
:105334001F05590145078D05BE0D0B0ADA12AC0F86
:105344004C068B02590B1B09FC09790F9F01EF02D4
:10535400E14D00000FF704EE0B0D0A0E06170C15B5
:10536400E9F30003F812FD18170CF1EF6A0BE705D7
:105374007E0A16074A151211701ED6196103A70179
:10538400AE06D004830B7F093210DC0CE7037002F5
:10539400A0076E057E071C0D7F00FD00CD510000A7
:1053A40000000B020B070708F2031313F9E5E0E60C
:1053B400F0FC080C0305F0E1A713AA0CC20D980B2E
:1053C4009A18B9120C21C61B57094804E007B509FD
:1053D4008C0FEA0B4B17D012510E6D08900D1A0E5C
:1053E4009D0D1C160C0325044D4A00000F0B1102E1
:1053F400FE04090EFA1EF5FCF4DDF1F1F913EEFCDE
:105404000A0AF0E17D16B10ED10FDC09571A6717AD
:10541400A9218F1B6D068F04B4062906450DB20B16
:10542400D8122A10980A3507400CD506CD096A13FC
:10543400AE01B003FB4B000015FE0800F7090E1087
:10544400F409EE0CDCBBEBEBE3FEF40D1111ECE222
:1054540049137A0A2C0F390CDA190E16B61B7D176C
:105464001805CC036407E905300BE90AA60B3D0BCC
:105474005E058605760B9C097709E10ED2002302AE
:10548400324E000002F61DDB0101FD0BFB0002F6AB
:10549400FBF6F601FF12ED190503F4F7B510130539
:1054A400F20B860AC018CB10F122051DA507AB012B
:1054B400D60CB2074615B912EB1C02180F092C03BF
:1054C4000A0DA909A50A3B14F501D104074C0000F3
:1054D400030CF7EE07070007001FFF06F3F4F8F5C7
:1054E400FF05050B000DF9ED1210CD098D0EAF0867
:1054F40083172114351C761A1805BC013A060404D6
:10550400FE0B9C0A4F11CD0F04096C047D0D0C0693
:10551400F60954135B01B701854E0000FBFEF3EF5F
:105524000900FF0CF9FDFB0801FC0000F4F7FF1B68
:105534000706FEF0C20D1F06530CAE0A1816FB1028
:10554400971EDA1A4D079D02D60B7F08D912EE0E6C
:105554009D1ACF16C8068F03C00C1C0A2A0B1A12F8
:105564004E01BD02CA4C00006B0100001300000094
:10557400F814E90806E8C9DCE6E3CB5004C7D2EC2A
:10558400FACC0FDCE4143D31C509DB07F0088A07C7
:105594005010220E4E12430DBD01DC008704F202AE
:1055A400E10685056008EA071003F700C5049805BD
:1055B40013062C0968000401F8550000EB601FEA8B
:1055C400D7F80ADAF013C4FEFFE8B0BC2BA6F12624
:1055D400EB1DE029300AE809E605A407940D460C02
:1055E400FA10D614610314020603E3021E086108CC
:1055F4009D0A5008E00459046E054E06D205E008E1
:10560400CB00D900B3530000016423E7BFF607E9D8
:10561400F835FD30D6D0E4D901B4F4D7F508F80F45
:10562400EB084809AA0564094E11FE0E0B133C173A
:10563400CF02D8000603BF02EF07B1070B0C6B0DB6
:10564400CD05CB01040647062D07C70CB1009E010A
:10565400785300002046F300EBE3DEE60103F53760
:10566400DB9BB7F2DBBE13D1F00A16268F0B6E0953
:1056740042074508BD0FF30EE31388103D03C7002E
:10568400B803B2024A072306500BBF0900059C0168
:10569400B305A505AD054C0A870047016054000019
:1056A400003038F2F4020916DF2EDFEEF5DBE9CC28
:1056B4000DE5C511071FE4D8C3098C060F07FE05C5
:1056C400AB114B0D25163B16D6020D024903CB0335
:1056D400D4076B07DA0AF00850053903620731056D
:1056E4004707FD0BCB00E40056530000015AFAF5BE
:1056F400C2F8DFC0E02F03FABDE0E3D310B61E0802
:10570400D3142E40D20B4C0AE6047106760DAF0E6C
:105714003F1022136E031302370496024706520702
:10572400820B180AC10410032D048C044804C60A11
:105734006200A800BC540000FD58FEF2CEF7EEBE95
:1057440002E8DD0E0FE39AE811B11410E00B0C49E6
:105754008F0BF90A100487080F0FD70E2E0F66124D
:105764005D03F702070530033B09D5068F0BED08EF
:1057740087034C03F60366057705800AA500FB0042
:10578400AF5300001A1A0506CCE1031101070A24DD
:10579400CED815F6E5E10CD9F00100009C0F890C78
:1057A400CA0C0E0BA6121213E31528127804120168
:1057B40021060C05CA0AB609000E580AF705660246
:1057C400DD0708097E083D0E8400B901B9500000C8
:1057D400F93000FBEDFED8CEEA0FEB24F3DFBBD5A6
:1057E40006CFF7E6EF13171DB40A73087B072406E8
:1057F4001F0EEA0A21126811AA02EC006304460390
:105804005E093C083F0B350906059201C706B3053E
:10581400BE06C40BBD00500103540000314CEFF52B
:1058240006FBEEE40A31F70DE7DDF6D4DEC314F629
:10583400E3130F1BB80CE4094908FF063A0EAB0C3E
:10584400A813CA0F6C0372018503BF02F7079E07F2
:10585400FA0BEF07FF049202CA0710055A05790BE9
:105864006D00AE0025540000F25B20ECA3F509E0C6
:10587400E71EFF07D9D8C5E113BAE306EF12EB0917
:10588400840B120ACF087C07A90FF60C3614761382
:10589400F6027C010605A402EE079D08A50CAF0CD8
:1058A400A5059C029408DD044C06660AAA00FF00C4
:1058B400FC520000F214C8022E0AD4D4EA1CF8FAEE
:1058C400FD23D9C512FF3CF5D90D2C1B86074E09C3
:1058D400DC084605C40A700B0E11030B4002E401F8
:1058E40039048B035F077707840A7E091203DA02FF
:1058F40060060F04000550096100A6007E550000F3
:105904001B41E5FEFCE3DBD6FCE8DE14EDA8ADF8B4
:10591400E9BE1F04E5112538670D570BC007AF0614
:10592400AC0E1D0DBA114E0F63030F036B064B0231
:10593400670A9C06600AC30B4005CC0236078D0536
:10594400A405590A9A00F200FE520000123903F726
:10595400F4FD04F3F928F001DECDD0D7FAD9FF061F
:10596400FB13F1041B136E0C790A23088411F11044
:1059740009178416F2038B0225049603A709440928
:10598400D60C130BCE0A9105720BCC074E08991254
:1059940001024E016E4F0000101BF609D9D4CEF956
:1059A400F217EF2CD0B9D0E0F3E21AD5E5142809A8
:1059B4008309DB07B707C405AE09FB0938100E0ECF
:1059C4005902DD00ED02470260051805D3085007AF
:1059D4002205460192063B05E9043F0A7000950042
:1059E400CD560000040BD216D1C8F6E1CDF2DE107C
:1059F400EEA9BEDFF8EA38FAE1270D215D0BDA06DD
:105A0400B205FE044409FB0A6709DE097B021B0296
:105A14002B03B0029705DA0459070B06900482039E
:105A2400A0056105770436096B008F00C856000095
:105A34001220060AD0EB1208E9FBE90BFECFE1F0D5
:105A4400E9DCE4FF0916E4EB1B0B6D06E50624050F
:105A5400CC09EE0AB90D72090903C7019C04D202EC
:105A64007506E2067B081407FB03E702CA058305F3
:105A74004504EB08BE00DE00905500001B2AE30538
:105A8400EFD9E1F8F82EDCFEF4C192C3F5EE20F76D
:105A9400E92314F7A30BBD07D3066705E50B530AE7
:105AA4004611800EE4027D015902AC024A07410608
:105AB4000A08A206E5049C036C0754055305160A5C
:105AC40084008D00795500000B04EC07E7F0FAFC24
